:020000040800F2
:10000000000003206D0600088526000887260008EA
:10001000892600088B2600088D26000800000000B5
:10002000000000000000000000000000617A0008ED
:100030008F26000800000000F17A00088573000890
:10004000BD060008BD060008BD060008BD06000884
:10005000BD060008BD060008BD060008BD06000874
:10006000BD060008BD060008BD060008BD06000864
:10007000BD060008BD060008BD060008BD06000854
:10008000BD060008BD060008BD060008BD06000844
:10009000BD060008BD060008BD060008BD06000834
:1000A000BD060008BD060008BD060008BD06000824
:1000B000BD060008BD060008BD060008BD06000814
:1000C000BD060008BD060008BD060008BD06000804
:1000D000BD060008BD060008BD060008BD060008F4
:1000E000BD060008BD060008BD060008BD060008E4
:1000F000BD060008BD060008BD060008BD060008D4
:10010000BD060008BD060008BD060008BD060008C3
:10011000BD060008BD06000891260008BD060008BF
:10012000BD060008BD060008BD060008BD060008A3
:10013000BD060008BD060008BD060008BD06000893
:10014000BD060008BD060008BD060008BD06000883
:10015000BD060008BD060008BD060008BD06000873
:10016000BD060008BD060008BD060008BD06000863
:10017000BD0600089D260008BD060008000000001E
:10018000BD060008BD060008BD060008BD06000843
:10019000BD060008BD060008BD060008BD06000833
:0C01A000A9260008BD060008B5260008CE
:1001B00010B5054C237833B9044B13B10448AFF3A1
:1001C00000800123237010BD800400200000000087
:1001D000D03D020808B5034B1BB103490348AFF3F8
:1001E000008008BD0000000084040020D03D02080B
:1001F000034613F8012B002AFBD1181A0138704767
:1002000001F0FF01102A2BDB10F0070F08D010F8C7
:10021000013B013A8B422DD010F0070F42B3F6D1CB
:10022000F0B441EA012141EA014122F007047FF0E4
:1002300000070023F0E80256083C85EA010586EA3B
:10024000010685FA47F5A3FA87F586FA47F6A5FA77
:1002500087F68EB9EED1F0BC01F0FF0102F0070283
:1002600032B110F8013B013A83EA010313B1F8D12E
:100270000020704701387047002D06BF354603380F
:10028000073815F0010F07D1013015F4807F02BF48
:10029000013015F4C03F0130F0BC0138704700BF99
:1002A0007BB972B90029BEBF00204FF0004106E0C3
:1002B00008BF00281CBF6FF000414FF0FF3000F076
:1002C000D3B9ADF1080C6DE904CE002909DB002B90
:1002D0001ADB00F04DF8DDF804E0DDE9022304B09C
:1002E0007047404261EB4101002B1BDB00F040F8FE
:1002F000DDF804E0DDE9022304B0404261EB410196
:10030000524263EB43037047524263EB430300F0F6
:100310002FF8DDF804E0DDE9022304B0404261EB90
:1003200041017047524263EB430300F021F8DDF8CE
:1003300004E0DDE9022304B0524263EB430370475B
:1003400053B94AB9002908BF00281CBF4FF0FF313C
:100350004FF0FF3000F088B9ADF1080C6DE904CE24
:1003600000F006F8DDF804E0DDE9022304B0704790
:100370002DE9F047089D8E4604468846002B4AD159
:100380008A42174662D9B2FA82F64EB1C6F120030C
:1003900001FA06F820FA03F3B74043EA0808B4402C
:1003A0004FEA174E1FFA87FCB8FBFEF1230C0EFB39
:1003B000118843EA084301FB0CF29A4209D9FB1861
:1003C00001F1FF3080F0EA809A4240F2E780023982
:1003D0003B449A1AA3B2B2FBFEF00EFB102243EA92
:1003E000024300FB0CFC9C4509D9FB1800F1FF32CD
:1003F00080F0D6809C4540F2D3803B44023840EAEE
:100400000140A3EB0C0300211DB1F3400022C5E91C
:100410000032BDE8F0878B4205D90DB1C5E9000176
:1004200000210846F5E7B3FA83F1002946D1734568
:1004300002D3824200F20581841A6EEB030201208E
:100440009046002DE5D0C5E90048E2E7002A00F01B
:100450009080B2FA82F6002E40F0A4808A1A030C33
:100460004FEA174E80B2BCB20121B2FBFEFC0EFB7C
:100470001C2243EA024304FB0CF29A4207D9FB1800
:100480000CF1FF3802D29A4200F2E080C4469B1A77
:10049000B3FBFEF20EFB123340EA034302FB04F40B
:1004A0009C4207D9FB1802F1FF3002D29C4200F2B5
:1004B000CA8002461B1B42EA0C40A5E7C1F1200698
:1004C0008B4022FA06F71F430EFA01F420FA06F3D6
:1004D0002EFA06FE4FEA1749234300FA01F81FFAE5
:1004E00087FCBEFBF9F01C0C09FB10EE44EA0E443D
:1004F00000FB0CFEA64502FA01F209D93C1900F1F5
:10050000FF3A80F09C80A64540F2998002383C4436
:10051000A4EB0E041FFA83FEB4FBF9F309FB1344AA
:100520004EEA044403FB0CFCA44508D93C1903F132
:10053000FF3E80F08280A4457FD9023B3C4443EAE1
:100540000040A4EB0C04A0FB02EC64457346E146BA
:1005500062D35FD05DB1B8EB030264EB090404FA27
:1005600006F622FA01F31E43CC40C5E900640021DF
:100570004FE7B1FBF2FC010C41EA0E4180B240EAC8
:1005800001423B4638463C46B846BE462026B1FBB3
:10059000F7F1A2EB080241EA0C4166E7014618E7D1
:1005A00010462CE7C6F120022EFA02F3B740B14004
:1005B00020FA02F24FEA174E0A43B3FBFEF8BCB230
:1005C0000EFB1833110C41EA034108FB04F9B0405B
:1005D00089454FEA104380B23ED9791808F1FF3CB3
:1005E00001D289451FD8A1EB0901B1FBFEF909FB36
:1005F00004F80EFB191192B242EA0142424529D297
:10060000BA1809F1FF31C4D24245C2D2A9F10201A0
:100610003A44BEE7F0459DD2BEEB02036CEB070CFB
:100620000138E14696E7A7EB09094944A8F1020C15
:10063000B1FBFEF909FB04F8DBE773467FE75046A0
:1006400066E70846FDE63B44023A33E7ACF1020CAC
:100650003B441CE749469CE7A1EB0901C446B1FBBA
:10066000FEF909FB04F8C4E7704700BFDFF834D097
:10067000002103E00C4B5B58435004310B480C4BFA
:1006800042189A42F6D30B4A02E0002342F8043B98
:10069000094B9A42F9D303F0BDF822F083FC01F034
:1006A0003DFA704700000320945C0208000000201F
:1006B0007C02002080040020484D0120FEE77047A6
:1006C00008B500F0BBFDBDE8084000F03FBD00F0FC
:1006D000B7BD704710B50421044621F0E2F9204669
:1006E00010BD000038B50C4B0C4C18800C4B822010
:1006F00019806368984740F6110398420AD1094D62
:1007000023682C60822098472B688220DB689847FA
:10071000002038BD0120FCE7A6040020A400002032
:10072000A4040020A80400204FF4A071F020FFF7DB
:10073000D9BF0000F7B5394D2B6804461B698220EC
:100740009847208000284ED02B680DF106025B6987
:1007500001A982209847324B1B78002B4BD0BDF863
:10076000062040F674639A423FD9ADF80630BDF8D2
:1007700006209B1A9BB20A2B42D90B22B3FBF2F341
:10078000284A1288934201D9013A93B2BDF8042055
:10079000254840F6B8318A4234D8C2F571620E322B
:1007A000016892B20F25B2FBF5F2204D2D88AA42C6
:1007B00084BF05F1FF35AAB28A4215468EB22AD906
:1007C000921B91B21A4E3768BB42BAB28CBF9A1ACA
:1007D000D21A92B211440529C4BF05603360036880
:1007E00063803368A38003B0F0BDB32A9CBFB422FA
:1007F000ADF80620BBE7BDF80630A3F5B473B9E742
:100800000023C3E7C2F56D62083292B20E2A016876
:10081000C8D800252A46891A89B2D3E7A80400203F
:10082000CC2E0020A4040020A0040020A604002058
:100830009C04002037B568460D461446FFF77AFF42
:10084000BDF8000030B1BDF802302B60BDF80430B7
:100850002360012003B030BD032821D8DFE800F079
:10086000020B12190F4B1A68B2FA82F252090421D4
:100870000D4803F063BA0B4B5A68B2FA82F2520980
:100880000821F5E7074B9A68B2FA82F25209102163
:10089000EEE7044BDA68B2FA82F252092021E7E768
:1008A000704700BFAC04002000100240032821D88C
:1008B000DFE800F0020B12190F4B1A68003A18BF5C
:1008C000012204210D4803F039BA0B4B5A68003A53
:1008D00018BF01220821F5E7074B9A68003A18BFB4
:1008E00001221021EEE7044BDA68003A18BF01221A
:1008F0002021E7E7704700BFAC0400200010024051
:1009000003280DD8DFE800F00206080A0421054894
:1009100003F019BA0821FAE71021F8E72021F6E7D9
:10092000704700BF0010024008B5032811D8DFE867
:1009300000F0020A0C0E0421074803F0F9F9431EE7
:100940005842584108BD0821F6E71021F4E720215C
:10095000F2E70020F3E700BF0010024070B5084D39
:1009600000240126E0B2FFF7DFFF18B12B68012B4E
:1009700018BF2E600134052C05F10405F2D170BDBD
:10098000AC040020012380F8781080F8793070479B
:100990007047002070470000034B4164003918BFC6
:1009A00001211970704700BF0540012070470020E9
:1009B0007047836B0BB10846184770474FF6FF70BE
:1009C0007047406803689B691847704770477047D5
:1009D0007047704710B5044600F048FD236803498E
:1009E000D3F890302046BDE810401847000000D0F2
:1009F00008B503680446D3F8843098472368204636
:100A0000DB6F984700F0ECF8236820465B6F98474F
:100A1000292001F021FB00F0E3F8236820465B6FFA
:100A20009847F8E710B504460AF090FB2368204683
:100A3000D3F8BC30BDE81040184700F0FBBC00F014
:100A4000FFBC00F031BD00F0D1BC00F041BD00F0B2
:100A500049BD00F0D5BC09F099BD10B5842104460C
:100A600021F01FF8204610BD10B590F8341090F812
:100A700078400C4B8C421A7809D03AB90A4A0B4993
:100A80001488088810800C8001221A7010BD002A7A
:100A9000FCD0054A05491488088810800C80002283
:100AA000F3E700BFFE3F0120FA3F0120FC3F012099
:100AB00070B50D46194635B9094B0A4A0A4840F245
:100AC000FF2121F02BFFC0E90F52084B003A18BF5D
:100AD00001221A700368BDE87040D3F890301847BF
:100AE000403E0208783E0208C63E0208044001204B
:100AF00008B5094B1B888B4203D8084B1B889342CF
:100B000005D9074B074A0848A32121F007FF074BE7
:100B10001980074B1A8008BDFA3F0120FC3F0120D5
:100B20000B3F02086E3F0208C63E0208004001204B
:100B300002400120034690F87A0018B15868036813
:100B40001B68184770470000012108B500220846BD
:100B500006F0A2FC0A4B186028B90A4B0A4A282161
:100B60000A4821F0DBFE00220421012006F033FDBB
:100B7000074B186018B9074B034A2C21F0E708BD52
:100B8000C0040020B13F0208FA3F020829400208D1
:100B9000BC04002076400208024B4FF0FF31186879
:100BA00006F0C4BCC0040020014B186806F0EABC83
:100BB000C0040020024B0021186806F0B7BC00BF3B
:100BC000C0040020FFF7F0BF034804490068002379
:100BD0001A4606F03BBD00BFBC0400200400002004
:100BE00013B5084C00231A4601A9206806F05FFDE2
:100BF00020684FF0FF33002201A906F058FD02B033
:100C000010BD00BFBC04002003685B6C18470120C6
:100C1000704703689B6A1847FEE740F2EF30704761
:100C2000054B0360054B4FF08062C3F88820BFF38B
:100C30004F8FBFF36F8F7047FC49020800E100E05F
:100C400010B504464FF45A61FFF7EAFF204620F042
:100C500028FF204610BD000082B0002301930E4BF8
:100C60001A6B42F400021A631A6B02F4000201923A
:100C7000019A1A6942F400021A611A6922F4000208
:100C80001A61064B064A1A61064A5A61064B4FF032
:100C900080629A6002B0704700380240B030002095
:100CA000F90E0008190C000800E100E008B50A2858
:100CB00009D8DFE800F006100E0808080810101028
:100CC0001000022008BD054B054A0648902121F07E
:100CD00025FE0020F6E70120F4E700BFB840020837
:100CE000D34002081E41020838B50C46887FFFF742
:100CF000DDFFA58AE28A164B2169586342EA054264
:100D00005A64628BD963521B1A642568082D0ED170
:100D10009A611A615862207F0E4A42EA0062DA61E3
:100D2000E2681A620C4A5961D9601A6038BD002223
:100D3000D8611A61E1680A0A480902F4784200F4AD
:100D4000FC600243C1F3C4010A439A63034AECE71F
:100D500000B002400900010001230200012303004A
:100D600008B50B280BD8DFE800F00612100A0A0AB3
:100D70000A0808080808022008BD0520FCE7054B02
:100D8000054A06486F2121F0C9FD0020F4E7012043
:100D9000F2E700BFB8400208694102081E4102089C
:100DA0002DE9F04191F81D800C464046FFF7D8FF31
:100DB000A77F05463846FFF7D3FF06463846FFF7BC
:100DC00075FFA18A628B444B521A1A649A61228B76
:100DD000521A1A61E28A586342EA01425A6421694E
:100DE0006268D963DA602068802828D0227F0FD813
:100DF000202867D0402865D004281AD0364B45EA11
:100E0000026545F40035B845DD6161D0334A44E000
:100E1000B0F5807F04D0B0F5007FEFD1304800E01E
:100E2000304840EA0262DA61E2681A625E62596141
:100E300032E045EA026242F40032DA61F6E7A06885
:100E4000021DDA62227F45EA026545F40035DD6164
:100E50005E625961017841B1012921D0224B234AB8
:100E600023484FF48D7121F059FDDA69418822F44D
:100E70007F42013922F0100242EA0122DA610121A7
:100E8000154BDA6942F02002DA61DA699206FCD485
:100E900010229A600029B9D0164A1A60BDE8F08184
:100EA000B2F1FF01DA69408822F47F4200F1FF309D
:100EB00022F0100242EA002242F0100218BF012183
:100EC000DA61DDE745EA0262034B42F40032B4E73F
:100ED00042F20132E1E700BF00B00240012301000D
:100EE000090002000A000200B3410208CD410208D5
:100EF0001E41020801230200024B1B685868036868
:100F00005B6918470840012070B5044625460A4B26
:100F10000C30002660602672667245F8203B602225
:100F200029460AF069FA04F55A63EE6024359D42B9
:100F3000FBD1204670BD00BFFC490208034B1A6874
:100F4000D207FCD423229A60704700BF00B0024051
:100F50007047000030B50F4C2568ED07FCD4232501
:100F60000904A56041F001010225FF2B656361645E
:100F7000E0630AD00849656241EA0363E361074B15
:100F800022626061E060236030BDE561039BA36382
:100F9000034BF8E700B00240090001000100020025
:100FA0000100030030B50E4C2568ED07FCD4232565
:100FB0001204A56042F001020225FF2B6563626402
:100FC000E063E16008D01B0643F00213E361054BC8
:100FD00065626061236030BD034BE3610123F9E783
:100FE00000B0024001000200020002FF30B50B4CCD
:100FF0002568ED07FCD4232512041B06A56043F4E5
:101000000033022542F0010265636264E063E1603F
:10101000E361034B65626061236030BD00B0024054
:1010200001000200012070470C2070470C2303FBD5
:101030000100083070470C2303FB010008307047A3
:101040000120704740F6EC60704740F6EC6303FB0C
:1010500001000830704740F6EC6303FB01000830E4
:101060007047012070471020704700EB01100830D6
:10107000704700EB011008307047084601F00CBDC6
:1010800010B5034B0360044608F0D4FF204610BDA2
:10109000B44A020810B50446FFF7F2FF20461421B7
:1010A00020F0FFFC204610BD10B5034B0360044642
:1010B00008F0C0FF204610BD804A020810B5044663
:1010C000FFF7F2FF204640F6F46120F0EAFC2046EC
:1010D00010BD000010B5034B0360044608F0AAFFE2
:1010E000204610BD4C4A020810B50446FFF7F2FF37
:1010F0002046182120F0D5FC204610BD10B5084B25
:101100000360044600F57260FFF7BAFF04F12C009B
:10111000FFF7CAFF04F11400FFF7DCFF204610BD03
:10112000E84A020808B50248FFF7E8FF08BD00BF1B
:101130009C13002010B50446FFF7E0FF204641F263
:10114000940120F0AEFC204610BD00002DE9F341D3
:1011500001F024FB054601F025FB0024014623464F
:1011600028462246009411F009FC274B274A1A60B2
:10117000204601F05FFE264D264B274A27489A60FD
:1011800011F064FB2B68BFF35B8FDB0735D4284677
:1011900020F089FC88B3224C224B236004F6387679
:1011A00004F1140004F12C0804F572676060C4F8BF
:1011B0000880E760266108F03FFF1B4B63614046F3
:1011C00008F03AFF194BE362384608F035FF184B38
:1011D000C4F8203F04F6347001F0A2FE224604F663
:1011E0003471304601F092FE304601F055FC114852
:1011F00021F0B2FB284620F062FC0F4802B0BDE8A7
:10120000F041FFF7E7BB00BF6C400120480500201C
:1012100098130020680500204C05002008000020DD
:101220009C130020E84A02084C4A0208804A02083F
:10123000B44A020825110008C404002070470000C9
:101240000148FFF7D5BB00BFC404002070B5264E8F
:10125000264C274D274B23603046FFF755FE284686
:1012600016F092FC24480FF0EFFB244B2448DC607E
:1012700000224FF48071C3E9121222491A86C3E991
:101280001A12214983F85820C3E91E011F49C3F8E7
:1012900080101F491F480B60F021C3E90422C3E9F5
:1012A0000622C3E90822C3E90A22C3E90E22C3E9E0
:1012B0001022C3E91422C3E917225A6683F870206A
:1012C0005A67C3E9016501801348018013484FF450
:1012D000A07101801248018012490A70012283F82E
:1012E0003420114A1A6070BDF405002094130020C8
:1012F00068050020303E02084C050020C404002090
:101300000000010101000001000450001A00140057
:1013100008400120FA3F012000400120FC3F01204D
:1013200002400120FE3F0120104902080148FFF75A
:1013300077BC00BFF4050020002070478180704713
:10134000C180704701817047418170477047704785
:1013500070477047704710B4C4880368121B8488B4
:101360005B6D091B12B25DF8044B09B218474FF6CA
:10137000FF7383814FF0FF3303621368C361106012
:101380007047002070478B8883800120704770472A
:1013900080F82610704790F82600704710B500229C
:1013A000B1F90840B1F90A10028042808480C180FE
:1013B00010BD0022028042808280C2807047017787
:1013C000704780ED080A704780F82410704780F855
:1013D0002510704701207047983070478C30704757
:1013E000843070477047704770470000034B90226D
:1013F00083F85A2383F85823704700BF00E100E0C8
:10140000094A0A49D3680A48C3F30A03013B9BB25D
:101410000B801169C1F30A01013901801364536B18
:1014200043F00103536370470068014032240020F9
:1014300030240020014BD3F8AC0070470068014015
:10144000024B0122C3F8AC105A6270470068014099
:1014500010B52C21044620F024FB204610BD10B509
:10146000BC21044620F01DFB204610BD70B504468B
:1014700009F0E1F823689D6E0EF07EF801462046E3
:10148000A8472368054AD3F88C502046AC46002371
:10149000BDE87040A2F51631604700BF00B004D02F
:1014A00009F0B0B809F0BAB809F076B809F0E5B9B2
:1014B00090F8252012B103685B691847704790F8CF
:1014C00025201AB190F8242002B11860704700005E
:1014D000034B4FF080629A604FF080729A607047C1
:1014E00000E100E0084B4FF08062C3F88820BFF3B2
:1014F0004F8FBFF36F8F4FF08072C3F88820BFF318
:101500004F8FBFF36F8F704700E100E070B500238D
:10151000124E8380124B0360336893F858200546BF
:101520000AB1D86C00B998680368DB6A98473368D9
:10153000B0FA80F4D86C640930B10368DB6A98476C
:10154000002808BF44F001042CB9064B064A07489E
:101550002C2121F0E3F9284670BD00BF084001208E
:10156000FC4A02080B42020869420208A242020831
:1015700070B5254E3568BFF35B8F15F0010540D17E
:10158000304620F090FA00283BD0204C204B2561BB
:1015900004F13400C4E90035C4E90255E584A562CC
:1015A000A5850FF036FD04F158000CF0ADF8194B8D
:1015B000A3652046184B40F8843BFFF7A7FF174B65
:1015C000C4F884302433C4F88C304FF4C803C4E921
:1015D00028350023C4F8AC30C4F8B030C4F8B430B7
:1015E000C4F8B8300E480F4BC4F89050C4F89C5063
:1015F000C4F8A850C4F8983021F0AEF9304620F075
:101600005EFA024870BD00BF342400203824002058
:10161000E84F02081C4B0208944B02089C4F02083A
:10162000E91300087C4F020838B5184C23685BB3F7
:10163000174B184A1B6C11888B4216D1164B198810
:1016400003F066F9236893F86A200025013283F8D5
:101650006A2083F87C50FFF7B7FA206809F076FD1E
:101660002846BDE83840FFF7F7B803F051F9246881
:10167000236820461B6A9847012384F87C300020A9
:10168000BDE83840FFF712B938BD00BF084001205F
:1016900000680140322400203024002008B50C49A5
:1016A0000C48012207F056FF08B100F02FFD0A494F
:1016B000084807F062FF08B100F028FD054807F070
:1016C00075FF18B1BDE8084000F020BD08BD00BF9F
:1016D00040000020F424002064010020122301486F
:1016E0000B8070472C000020042301480B807047BA
:1016F00028000020002370B54D1C1E46040FB0F1D9
:10170000204F34BF3034373401F8134005F81360EC
:101710000133DCB2A2424FEA0010EFD870BD0000E6
:101720001A2310B50B800A4BD3F8100AD3F8182AE5
:1017300080180AD0D3F8144A06490822FFF7DAFFC6
:10174000042210312046FFF7D5FF034810BD00BF2B
:101750000070FF1F0E0000200C00002010B5044C8C
:1017600004480A46214608F0F0FA204610BD00BFA2
:10177000D02700200443020810B5044C04480A4650
:10178000214608F0E2FA204610BD00BFD027002015
:101790001743020810B5044C04480A46214608F0D5
:1017A000D4FA204610BD00BFD02700202D430208E8
:1017B00010B5044C04480A46214608F0C6FA2046F3
:1017C00010BD00BFD02700203843020830B50446C2
:1017D00089B01422002103A821F0DDFA22681C4BF5
:1017E0009A4233D11B4C1C4800250195236B43F0D2
:1017F00002032363236B03F002030193019B03A9FC
:101800004FF40053039302F0AFF94FF44042022328
:10181000CDE9032303210C23CDE906130E480595DA
:101820000DEB030102F0A0F90295236B43F0005386
:101830002363236B03F0005302934D202A460521B6
:10184000029B02F047F84D2002F076F809B030BD57
:1018500000000440003802400004024000F29C41B5
:10186000D0F8E00407F0B4BE242303FB0103D0F852
:10187000E004D3F8602207F0DBBE242303FB01035E
:10188000D0F8E0041A6A07F00DBFD0F8E00407F0C2
:10189000A9BF10B5C179044621B1022901D000F0D9
:1018A00035FC0121D4F8E00407F080FFD4F8E0040F
:1018B000BDE8104007F04ABF10B50446D0F8E00478
:1018C00007F077FF2268D2F8003E43F00103C2F828
:1018D000003EE37A23B1034A136943F00603136120
:1018E00010BD00BF00ED00E0D0F8E00407F06FBFCE
:1018F000D0F8E00407F096BFD0F8E00407F07FBF0F
:10190000D0F8E00407F0A1BFD0F8E00407F09FBFD3
:1019100008B50278012A034627D11548C0F8E034FB
:10192000C3F8C802134B0360062303714FF400731E
:10193000C38002234372002343810373C281037473
:1019400003F004F808B100F0E1FB4FF4007108481F
:1019500003F021FD80220021054803F0FDFC04482E
:101960004FF4BA72012103F0F7FC002008BD00BF5C
:10197000E42900200000044011F0800FD0F8C832A4
:101980004FF024021BBF01F07F0102FB013302FB79
:101990000133987D08BF93F856027047004870479E
:1019A000D0290020704718B102280CBF0120032065
:1019B000704708B5D0F8C80203F037F8BDE8084012
:1019C000FFF7F1BF10B51446D0F8C8021A462346F7
:1019D00003F05DF8BDE81040FFF7E5BF08B5D0F8AB
:1019E000C80203F08DF8BDE80840FFF7DCBF08B57A
:1019F000D0F8C80203F0EBF8BDE80840FFF7D3BF0A
:101A000008B5D0F8C80203F019F9BDE80840FFF79F
:101A1000CABF08B5D0F8C80203F026F8BDE80840F0
:101A2000FFF7C1BF08B5D0F8C80203F0B5F8BDE8AC
:101A30000840FFF7B8BF08B5D0F8C80203F08EF829
:101A4000BDE80840FFF7AFBF07B5064BADF806008D
:101A50001B68054801220DF1060104F0FFF903B0EF
:101A60005DF804FB5C0000205C2F002008B5FFF748
:101A700015FE642005F004FDFBE708B5012005F024
:101A8000FFFCFBE730B595B0102200210AA821F039
:101A900082F91422002103A821F07DF900241D4BB6
:101AA00001941A6C42F080521A641B6C03F080534C
:101AB0000193019B184B02941A6842F440421A6049
:101AC0001B6803F4404302930122029B4FF48033CE
:101AD000CDE9082302254FF48003CDE90E530421FC
:101AE000A823CDE9101308A807231393129503F038
:101AF00057FC0F23CDE903354FF4A0504FF480532A
:101B0000CDE90603052103A8059403F025FE15B0D1
:101B100030BD00BF00380240007000402DE9804811
:101B20009BB001F085FEFFF7ADFF142200210DA848
:101B300021F031F90024C74B00941A6BC648C74DF9
:101B400042F010021A631A6B02F010020092009A1F
:101B500001941A6B42F020021A631A6B02F0200201
:101B60000192019A02941A6B42F080021A631A6B76
:101B700002F080020292029A03941A6B42F004026D
:101B80001A631A6B02F004020392039A04941A6B0C
:101B900042F001021A631A6B02F001020492049AE5
:101BA00005941A6B42F002021A631A6B02F00202E9
:101BB0000592059A06941A6B42F040021A631A6B5A
:101BC00002F040020692069A07941A6B42F008024D
:101BD0001A631B6B03F00803224607933C21079B03
:101BE00002F0ACF89E480122022102F0A7F822463A
:101BF0009B48042102F0A2F822469A484FF4405133
:101C000002F09CF801263C23CDE90D3692480F9452
:101C100003230DA90227109301F0A6FF90480DA9F8
:101C2000CDE90D76CDE90F4401F09EFF04238C48E9
:101C30000DA9CDE90D36CDE90F4701F095FF0DA9AE
:101C40004FF440538748CDE90D36CDE90F4701F0F9
:101C50008BFF8548854B036001F07CFEDFF834C2C2
:101C6000834B2C62C5E900C328464FF48043C5E985
:101C70000434C5E90244C5E9064402F06DFA1021B6
:101C8000284602F0B1FC2146284602F0CCFC794DF2
:101C9000DFF804E2AC624FF48273C5E900E34FF46D
:101CA00000781823C5E9068328460A23C5E90244BB
:101CB000C5E90444C5E90844EB6204F073F88F23D6
:101CC0002246394666488DF824308DF8344002F0BB
:101CD00035F832464FF47A7309A9284604F0BEF865
:101CE0004FF47A7332460DA9284604F063FA32465F
:101CF00039465B48604D02F021F89DF83430D32B13
:101D000004BF5E4B1E705E4B0127C5E900374FF0E4
:101D1000100940230024C5E904934FF4C073C5E9BA
:101D200006344FF40063C5E908344FF4005302262B
:101D30004FF0040AAB624FF0030B07230DA92846AE
:101D4000CDE90D63CDE90FA34FF00808C5E9024ABC
:101D5000CDE911B6139603F009FF4FF6FF7209A9FA
:101D60002846CDE90A87089409970C9403F01EFFD2
:101D7000384601F089FD4FF6FF7209A92846CDE9E2
:101D80000968CDE90B7403F011FF4FF6FF7209A942
:101D90002846CDE909B8CDE90BA403F007FF4FF4BD
:101DA0000C730893089B0C934FF6FF7209A9284601
:101DB000CDE909A80B9703F0F9FE40F26A512846D5
:101DC00003F012FF342221460DEB020020F0E3FF66
:101DD0002C4D2D4B2C61C5E900340923C5E905378D
:101DE0001D23C5E9073B40F20D1240F24313C5E93C
:101DF000092340F2171140F247132846C5E90B1397
:101E0000C5E90244AC8685F8364002F09FFCFF210C
:101E1000F022CDE912144FF4806005214FF4A07335
:101E2000CDE91401CDE90E240DA9CDE916422846CD
:101E30002246164D1893CDE910360D94ADF8644046
:101E40008DF8664002F036FD114B2B601B689847F9
:101E50002B6823E000380240001002405C30002074
:101E600000080240000C0240F03000200030024028
:101E7000A08601005C2F0020E02E0020CC2E002048
:101E8000400100A0B42F002000680140C82E0020AF
:101E90006C000020005C004000500140234DDB68D6
:101EA0009847234B2846C5E90034C5E90264C5E9D3
:101EB0000A46C5E90C4401F05DFD3946284601F0AB
:101EC0000FFE1C4D1C484FF4E133C0E900530C23B6
:101ED000C0E90534C0E902440461C46104F020FC97
:101EE000FEF7EEFBFEF7EBFB05F05AFA134A31461C
:101EF000484605F070FB124B124A18602146124802
:101F000005F07AFA114B124A18602146114805F083
:101F100073FA114B114A18602146114805F06CFA0A
:101F2000104B186005F04EFAFEE700BFB0300020FD
:101F300000B0024000100140142F0020D84B0208CE
:101F4000D02E0020384C02086D1A0008DC2E00202C
:101F5000144C0208CF060008D82E0020F04B0208CF
:101F60007B1A0008D42E0020704770477FB5094BBC
:101F70008DF817201B6802930DF1170201230092C0
:101F800001930A460146044802F08EF907B05DF855
:101F900004FB00BF600000205C3000207FB5002300
:101FA0008DF81730084B1B6802930A4601230DF188
:101FB0001701009101930146044802F005FA9DF8CB
:101FC000170007B05DF804FB600000205C300020C3
:101FD0001FB5084C24680092CDE901340A4601235C
:101FE0000146054802F0F0F9003818BF012004B09E
:101FF00010BD00BF600000205C30002001F044BC38
:1020000010B5064C00222046042101F097FE204620
:102010000122BDE81040042101F090BE00080240FA
:1020200038B50B4D044601220A484FF4005101F027
:1020300085FE00220421284601F080FE2046FFF79D
:1020400003FD28460122BDE83840042101F076BE98
:1020500000080240000C024038B50B4D0446002237
:102060000A484FF4005101F069FE0022042128467D
:1020700001F064FE2046FFF7E7FC28460122BDE898
:102080003840042101F05ABE00080240000C024012
:10209000F7B5144E144F05460C4630460022042175
:1020A00001F04CFE00224FF40051384601F046FE8C
:1020B0002846FFF7C9FC0D4B0D481B68224601A9B5
:1020C00004F078F8384601224FF40051019C01F0E9
:1020D00035FE30460122042101F030FE204603B0D7
:1020E000F0BD00BF00080240000C02405C00002070
:1020F0005C2F002001F0C8BB0268034B9A4201D15B
:1021000001F0B0BB704700BF0010004070470000F6
:1021100082B00E4B00220092596C41F48041596408
:10212000596C01F48041009100990192196C41F0C1
:10213000805119641B6C03F080530193019B0F21A4
:102140006FF0010002B001F0C5BB00BF00380240D3
:102150000268094B9A4282B00BD100230193074BCE
:102160001A6B42F480521A631B6B03F48053019381
:10217000019B02B0704700BF0030024000380240AF
:1021800007B50F4B02689A4216D10022A3F5F0431F
:102190000192196B41F4000119631B6B03F40003F6
:1021A000019305215A20019B01F094FB5A2003B0B2
:1021B0005DF804EB01F0C0BB03B05DF804FB00BFA9
:1021C00000B002402DE9F043044689B014220021FA
:1021D00003A820F0E0FD2268244B9A4243D1244C0E
:1021E000244800250095236B43F004032363236BED
:1021F00003F004030093009B0195236B43F001035C
:102200002363236B03F001030193019B4FF0120939
:102210004FF400734FF001080327042603A9CDE90A
:102220000339CDE90587079601F09EFC4FF48073D2
:102230001148079603A9CDE90339CDE9058701F0D7
:1022400093FC0295236C43F400032364236C03F492
:1022500000030293029B236A43F400032362236A70
:1022600023F40003236209B0BDE8F083005C004062
:10227000003802400008024000000240F0B599B06A
:1022800004461422002107A820F085FD30220DEB22
:102290000200002120F07FFD22685E4B9A4240F050
:1022A000B78008230C93C0231093042312930CA827
:1022B0004FF40033159303F02DFB08B1FFF726FF11
:1022C000554B5648002400945A6C42F080625A6480
:1022D0005A6C02F080620092009A01941A6B42F0EC
:1022E00020021A631A6B02F020020192019A0294F2
:1022F0001A6B42F001021A631A6B02F00102029299
:10230000029A03941A6B42F002021A631A6B02F0EB
:1023100002020392039A04941A6B42F040021A6379
:102320001A6B02F040020492049A05941A6B42F070
:1023300004021A631A6B02F004020592059A0694CD
:102340001A6B42F008021A631B6B03F00803069332
:1023500002250E26069B0B964FF4806307A9CDE954
:102360000735CDE9094501F0FFFB41F658032C483C
:102370000B9607A9CDE907350927CDE9094501F0F5
:10238000F3FB032327480B9707A9CDE90735CDE9D0
:10239000094501F0E9FB4FF4706322480B9607A949
:1023A000CDE90735CDE9094501F0DEFB4FF40C63BB
:1023B0001D480B9607A9CDE90735CDE9094501F080
:1023C000D3FBC02319480B9607A9CDE90735CDE902
:1023D000094501F0C9FB082315480B9607A9CDE96B
:1023E0000735CDE9094501F0BFFB4FF4A0530E4876
:1023F0000B9707A9CDE90735CDE9094501F0B4FBF5
:1024000058202246052101F065FA582001F094FA7F
:1024100019B0F0BD006801400038024000140240CD
:102420000000024000040240001802400008024080
:10243000000C024010B5044688B01422002103A805
:1024400020F0A9FC2268144B9A4223D103F568437B
:10245000002101915A6C114842F480125A645A6C5E
:1024600002F480120192019A02911A6B42F020024A
:102470001A631B6B03F020030293029B4FF46072FC
:1024800002230321CDE903230523CDE9061303A984
:1024900001F06AFB08B010BD00500140001402407A
:1024A00010B5044688B01422002103A820F073FC64
:1024B0002268144B9A4223D103F5943300210191F1
:1024C0005A6C114842F010025A645A6C02F0100221
:1024D0000192019A02911A6B42F001021A631B6B7E
:1024E00003F001030293029B4FF4C0620223032115
:1024F000CDE903230723CDE9061303A901F034FB3B
:1025000008B010BD00100140000002402DE9F0416C
:1025100086B0002303932B4B1C68002C4FD14FF047
:102520000108C3F80080284B00949A6B274842EAC0
:1025300008029A639B6B03EA0803009302270326B1
:102540000C25009B01A94FF63F03CDE90137CDE9EA
:10255000046501F009FB1E48059501A9CDE9018735
:10256000CDE9034601F000FB48F233131948059505
:1025700001A9CDE90137CDE9034601F0F5FA4FF69F
:1025800083731548059501A9CDE90137CDE90346C7
:1025900001F0EAFA4CF203731048059501A9CDE960
:1025A0000137CDE9034601F0DFFA60230C480595B9
:1025B00001A9CDE90137CDE9034601F0D5FA06B00E
:1025C000BDE8F081FC3000200038024000140240D9
:1025D000000802400018024000100240000C0240B7
:1025E0000004024070B588B000230293204B1A6C9F
:1025F00042F010021A641B6C03F0100302930546AC
:1026000001A903A8029B03F067F9069B4BBB03F0EB
:1026100043F9184E184B336040F2E733F360174B21
:10262000B0FBF3F3013B7360304600233361B360CA
:10263000B36103F089FF044680B9304603F05EFEC3
:10264000044658B9362001F077F90F2D0DD82246EF
:102650002946362001F03EF9094B1D60204608B09E
:1026600070BD03F019F94000D3E70124F6E700BF7D
:1026700000380240003100200010004040420F00AE
:10268000D40000207047FEE7FEE7FEE7FEE7704754
:10269000014803F071BE00BF00310020014802F084
:1026A00013BB00BFE4290020014802F0A6B800BF18
:1026B000B42F0020014801F089B900BFB0300020DC
:1026C0000120704708B520F067FC162303604FF027
:1026D000FF3008BD08B520F05FFC16230360FEE75D
:1026E00070B50D4614460E46731B9C4201DC204615
:1026F00070BDAFF3008006F8010BF5E770B50D462D
:1027000014460E46731B9C4201DC204670BD16F831
:10271000010BAFF30080F5E74FF0FF3070474FF447
:1027200000534B6000207047012070470020704725
:102730000A4A116808B5034609B9094911601068C9
:10274000694603448B4206D920F026FC0C23036023
:102750004FF0FF3008BD1360FCE700BF4831002098
:10276000484D0120704710B5042104461FF099F927
:10277000204610BD012908B506D0022908D059B954
:1027800000F096FB006808BD00F092FB4068FAE795
:1027900000F08EFB8068F6E70020F4E70048704701
:1027A000704C02080120704713B5002451B1036832
:1027B00001948DF8034001AA9C680DF10303A04722
:1027C00002B010BD0846FBE7C0897047008A704719
:1027D000C088704780887047807A00F07F0070471B
:1027E000807AC00970470020704700009FED010A01
:1027F000704700BF000000007047704700F59873F5
:102800000868496803C37047704770474160704764
:1028100070477047064BC0F84C310023C0F8503168
:1028200000F5A273C0F84801C0F84031704700BFFE
:10283000D5280008012303727047704710B4C2689E
:1028400041685410034601EB6200D20748BF0A59A1
:102850009B685DF8044B48BFD3581847034640684F
:1028600030B19A681AB9D86800F0010070470120A9
:10287000704710B50C2104461FF013F9204610BD17
:1028800010B5102104461FF00CF9204610BD10B5FC
:102890004FF4AE7104461FF004F9204610BD10B588
:1028A0000CF06AFE0368BDE81040DB6B184710B5FA
:1028B0000446D0F8400158B10368DB68984738B146
:1028C000D4F8400103689B6898470023C4F840315E
:1028D00010BD00002DE9F14FD0E9556A0746B068F8
:1028E00003681B6A984740F6EB63984205D8444B4F
:1028F000444AA321444820F011F8706803681B6A19
:1029000098470F2803D8414B3E4AA421F2E7F068CC
:1029100003681B6A98470B2803D83D4B394AA52109
:10292000E8E70CF029FEDFF8F09004300CF049FEE7
:10293000D9F8000010B10368DB689847D9F80000A7
:1029400010B103681B689847DFF8D080D8F8000002
:1029500010B103685B699847D7F83C0110B1036870
:102960005B689847D8F8000010B103681B68984767
:10297000D7F83C0110B103689B689847F06803687A
:1029800000215B6A98474FF0000B224BC0F804B05F
:10299000044680F808B00360B068036859465B6A73
:1029A0009847054600F00AFB7068036859465B6A61
:1029B00098472946064600F0C5FA331DC7F83C6122
:1029C000C9F80040C8F80050CAF800302B68C6F8B3
:1029D00008A02846DB68EE639847336830461B68DA
:1029E0009847214628460FF003F8236820461B69C4
:1029F000984723685B69204601B0BDE8F04F18474F
:102A00006E430208FC430208CE4402081545020842
:102A1000B8450208F84C0208504001204C40012003
:102A2000044B1B6893F858200AB1D86C00B9986819
:102A3000704700BF0840012070B504460D46164699
:102A40000CF05CFE104A1460104A2260104A002309
:102A5000C4E95123C4E95333C4E94F330D4B18681B
:102A6000036801219B68C4E955659847FFF7D8FFC3
:102A700016F033FFFFF7D4FF16F0AAFFFFF7D0FFE1
:102A800016F0B2FF204670BD5C400120A44C020845
:102A90008C4C020808400120064BC0F84C31002342
:102AA000C0F8503100F5A273C0F84801C0F84031B9
:102AB000704700BFD5280008406A7047806A704799
:102AC00070478A880B8810B5D20A4C88C1699BB2BE
:102AD00051F8220043EA0443184410BD10B50446DF
:102AE000BAB1107B68B1537BD27A1B0203F4E06366
:102AF0001A43236A03EB82031A888A4202D193F9AC
:102B0000020010BD05D8013880B204330028F3D18B
:102B1000F7E70020F5E710B52C2104461EF0C1FFB1
:102B2000204610BD30B58BB00446BDF86050089506
:102B3000BDF85C5007959DF8505006959DF84C5097
:102B400005959DF8485004959DF8445003959DF8CF
:102B5000405002959DF83C500195BDF838500095C5
:102B60000EF014FB064B2360159BE361169B23625A
:102B7000199B63621A9BA36220460BB030BD00BF55
:102B80001C4D020870477047704770477047704788
:102B9000704710B56C2104461EF083FF204610BD1F
:102BA00038B504460EF078FD0023C4E91133C4E9BA
:102BB0001333C4E91533C4E91733E363A3660F4A3B
:102BC00022604FF480730E4AA4F8643004F140058B
:102BD000FF23226484F866302846F021FEF7B2FB1A
:102BE00028464FF4A071FEF7AFFB4FF07F43201D46
:102BF000A366294607F034FA204638BD844D020802
:102C0000DC5102087047000030B5164D2C6814F0F6
:102C100001048FB0BFF35B8F20D128461EF043FF25
:102C2000E0B13F230993104B0893104B1049114812
:102C30000A940122CDE906430423CDE903320A2395
:102C40000093CDE90B44CDE901440594FFF76AFFF9
:102C500009481FF081FE28461EF031FF05480FB0DD
:102C600030BD00BF4C310020485C0208545C0208B3
:102C7000185C020850310020052C00087047000045
:102C800030B5164D2C6814F001048FB0BFF35B8F84
:102C900020D128461EF007FFE0B13F230993104BD7
:102CA0000893104B104911480A940122CDE90643BC
:102CB0000423CDE9033214230093CDE90B44CDE97D
:102CC00001440594FFF72EFF09481FF045FE2846F2
:102CD0001EF0F5FE05480FB030BD00BF7C3100206E
:102CE0004C5C0208585C0208285C02088031002015
:102CF0007D2C00087047000030B5164D2C6814F08C
:102D000001048FB0BFF35B8F20D128461EF0CBFEAD
:102D1000E0B13F230993104B0893104B1049114821
:102D20000A940122CDE906430423CDE90332282386
:102D30000093CDE90B44CDE901440594FFF7F2FE81
:102D400009481FF009FE28461EF0B9FE05480FB0DD
:102D500030BD00BFAC310020505C02085C5C020852
:102D6000385C0208B0310020F52C000800207047C4
:102D7000002070470EB403B503AB002153F8042BB9
:102D800001930DF081FC02B05DF804EB03B07047D5
:102D90000CB407B504AB53F8042B01930DF074FC8D
:102DA00003B05DF804EB02B070470000436C10B54F
:102DB000044673B3038F2BB9184B194AC521194820
:102DC0001FF0ACFDC38E00EB43035B8C0BB30FF025
:102DD00002FB238F012B03D8134B144ACB21EEE7C0
:102DE000E28E531C9BB2092B194688BFA3F10A013E
:102DF00004EB410140F63F10498C814209D10A2B76
:102E000004EB420228BF002304EB4303508C588498
:102E100051842046BDE810400FF0E0B95B4602083F
:102E2000644602080F47020859470208674702082C
:102E30000FF09BB938B518BB124B13481C681349E7
:102E4000B4B1226822440260626822440A60A26827
:102E500014440F4B00221A8000F02AF8054600F0B7
:102E600025F80C4B1C600C4B1D600C4B188007E0C8
:102E70000B4B03600B4B0B600B4B1C68002CE8D119
:102E800038BD00BFE8310020E0310020DC310020F7
:102E9000E4310020604001206840012064400120AE
:102EA000645C0208605C0208685C020800207047ED
:102EB00000487047EC31002010B5FFF7E1FE044CEC
:102EC0002060FFF719FF6060FFF79EFEA06010BD55
:102ED000EC31002010B5002404600C6014601C600C
:102EE00010BD704710B54FF4AE7104461EF0D9FD09
:102EF000204610BD10B50446D0F8580100F013F874
:102F00002046BDE810400CF0B9BB000010B50446E7
:102F1000FFF792FD014B2360204610BDB84D02081B
:102F2000002202607047704770470438704770474E
:102F300010B5102104461EF0B4FD204610BDA0F1CE
:102F40000400F5E700228260024A02601832426003
:102F5000C16070470C4E02087047000010B5034B6B
:102F600003600446FFF713FE204610BD344E0208EE
:102F700010B50446FFF7F2FF204640F6EC611EF064
:102F800090FD204610BD2DE9F0411D460368BDF9B6
:102F900018701B6B04461646984723683146204636
:102FA0005B6B98472368294620469B6B98472368AC
:102FB00039462046DB6BBDE8F041184710B50446A2
:102FC000FFF7EEFD20460C4B40F86C3B09F08EFEFF
:102FD00004F1B400FEF79AFA084BC4F8B430243375
:102FE0000022C4F8BC301423C4E93432C4F8C02031
:102FF000A4F8D820204610BD344E02089C4F020889
:1030000010B50446FDF7F4F8214682B2BDE8104041
:1030100002484FF0FF3303F0B2BB00BF142F002073
:1030200030B590F8D8308FB0044663B3D0F8D430C0
:1030300001333F2BC0F8D43013DC322253436FF0FE
:103040003E0293FBF2F3D0F8D02013445B0123EA55
:10305000E373C0F8A0306C300FB0BDE830400AF028
:1030600037BB002580F8D85000F008FC074B084A11
:103070001B6884F89150C31A322101A81FF012FE78
:1030800001A8FFF7BDFF0FB030BD00BF0032002028
:103090003948020838B507EE901A1F4BDFED1F5A6A
:1030A00093ED007A1E4B9FED1F6A1F4CF8EEE77AF6
:1030B000002567EE877A93ED007A257027EE257A52
:1030C0000422A7EE867A2146E57083ED007A43421A
:1030D00006EE903A154B1648D3ED007A154BF8EEF4
:1030E000E66ABDEEC77A66EEA76AD3ED007A67EEB0
:1030F000A57AE6EE867AC3ED007A17EE103AFDEE79
:10310000E77A637017EE903AA37006F023FF2570FC
:103110006570A570E57038BD640000203333333F1F
:10312000FC3100209A99993EF83000206800002078
:10313000F4240020F831002037B50446FFF728FDBD
:1031400004F1DA004FF461610BF0C6F94FF0FF3380
:10315000C4F8C030A4F8C430D4F8D0305B0004F117
:103160006C051BB20022009311462846FFF70BFFA7
:10317000D4F8D0305B01C4E9263323EAE373C4F802
:10318000A03004F1B40200232946201DC4F8AC305D
:10319000C4F8942084F8913003B0BDE8304006F0C4
:1031A0005FBF000070B50E4690B00EF0B3F9F38823
:1031B0007489B5890E4AE41A338924B2ED1A2DB206
:1031C000631C022B05F1010398BF0024022B98BF5A
:1031D000002523463221009503A81FF063FD03A8B4
:1031E000FFF70EFF69B260B2FFF754FF10B070BD79
:1031F0004848020870B50D4690B004460EF036F906
:10320000B5F90610B5F908202D79C4F8C8101426B0
:10321000C4F8D060C4F8CC2075BB2823143A143904
:1032200012B2009309B204F16C00FFF7ACFED4F8BF
:10323000D0305B01C4E9263323EAE373C4F8A0303D
:10324000012384F8913040F20113A4F8D83000F043
:1032500015FB1D4B1D4A1860D4F8CC30C4E9346509
:103260000093D4F8C830322103A81FF01BFD03A837
:10327000FFF7C6FE10B070BD012DFBD12823143A14
:10328000143912B2009309B204F16C00FFF77BFE0F
:10329000D4F8D03084F891505B01C4E9263323EA96
:1032A000E373C4F8A03084F8D85000F0E7FA064B76
:1032B000074A18600023C4E93463D4F8CC30009383
:1032C000D4F8C830CFE700BF0032002051480208D0
:1032D0006A480208F02070474FF4A0707047292018
:1032E000FEF7BABE2820FEF7B7BE08B5FEF788FE87
:1032F000CA20FEF7B1FEC320FEF792FE0820FEF7BB
:103300008FFE5020FEF78CFECF20FEF7A5FE00209A
:10331000FEF786FEC120FEF783FE3020FEF780FE1A
:10332000ED20FEF799FE6420FEF77AFE0320FEF7FB
:1033300077FE1220FEF774FE8120FEF771FEE82072
:10334000FEF78AFE8520FEF76BFE0020FEF768FE82
:103350007820FEF765FECB20FEF77EFE3920FEF7D3
:103360005FFE2C20FEF75CFE0020FEF759FE3420A5
:10337000FEF756FE0220FEF753FEF720FEF76CFE26
:103380002020FEF74DFEEA20FEF766FE0020FEF745
:1033900047FE0020FEF744FEB120FEF75DFE002050
:1033A000FEF73EFE1B20FEF73BFEB620FEF754FE66
:1033B0000A20FEF735FEA220FEF732FEC020FEF7FF
:1033C0004BFE1020FEF72CFEC120FEF745FE10201C
:1033D000FEF726FEC520FEF73FFE4520FEF720FE45
:1033E0001520FEF71DFEC720FEF736FE9020FEF7E3
:1033F00017FE3620FEF730FEC820FEF711FEF22041
:10340000FEF72AFE0020FEF70BFEB020FEF724FE9A
:10341000C220FEF705FEB620FEF71EFE0A20FEF7CC
:10342000FFFDA720FEF7FCFD2720FEF7F9FD042095
:10343000FEF7F6FD2A20FEF70FFE0020FEF7F0FD56
:103440000020FEF7EDFD0020FEF7EAFDEF20FEF77D
:10345000E7FD2B20FEF700FE0020FEF7E1FD002037
:10346000FEF7DEFD0120FEF7DBFD3F20FEF7D8FD75
:10347000F620FEF7F1FD0120FEF7D2FD0020FEF759
:10348000CFFD0620FEF7CCFD2C20FEF7E5FDC82081
:10349000FEF730FE2620FEF7DFFD0120FEF7C0FD1F
:1034A000E020FEF7D9FD0F20FEF7BAFD2920FEF738
:1034B000B7FD2420FEF7B4FD0C20FEF7B1FD0E2071
:1034C000FEF7AEFD0920FEF7ABFD4E20FEF7A8FD8E
:1034D0007820FEF7A5FD3C20FEF7A2FD0920FEF7AF
:1034E0009FFD1320FEF79CFD0520FEF799FD172098
:1034F000FEF796FD1120FEF793FD0020FEF790FDEC
:10350000E120FEF7A9FD0020FEF78AFD1620FEF758
:1035100087FD1B20FEF784FD0420FEF781FD1120AE
:10352000FEF77EFD0720FEF77BFD3120FEF778FDDC
:103530003320FEF775FD4220FEF772FD0520FEF7F1
:103540006FFD0C20FEF76CFD0A20FEF769FD2820B8
:10355000FEF766FD2F20FEF763FD0F20FEF760FDEE
:103560001120FEF779FDC820FEF7C4FD2920FEF7E3
:1035700073FDBDE808402C20FEF76EBD08B5FEF7D0
:103580003FFD0321D320FEF783FD80B208BD10B5B7
:10359000C4B2022203212046FEF7E8FC0A20FEF70F
:1035A0002DFD204600220321FEF7E0FCBDE810407F
:1035B0000220FEF723BD38B50446E4B2FEF7D4FC82
:1035C00000212046FEF7EAFC012105462046FEF7D1
:1035D000E5FC40EA052080B238BD10B5C4B24021F8
:1035E0002046FEF7DBFC030607D54C212046FEF7FC
:1035F000D5FC003818BF012010BD01224B21204608
:10360000FEF7B4FC204600224B21FEF7AFFC002061
:10361000F2E773B50423C4B20E461546D7210DEB6D
:1036200003022046FEF7D4FC019B1BBA1A0DC3F31C
:103630000B23328020462B8001224B21FEF796FC83
:1036400000224B212046FEF791FC02B070BD000025
:1036500010B50A4A1378984204460DD05178884232
:103660000AD00BB141B90123D454FEF77DFC2046AA
:10367000BDE81040FFF78BBF10BD00BF0432002033
:1036800010B5C4B209212046FEF788FC40F00102C3
:10369000D2B220460921BDE81040FEF767BC10B544
:1036A000C4B209212046FEF779FC092100F0FE0290
:1036B0002046BDE81040FEF759BC38B5C4B20D46EF
:1036C00020460A21FEF76AFC40EA0502D2B22046F3
:1036D0000A21BDE83840FEF749BC10B50446FEF7A4
:1036E00044FC20461F21FFF7E8FF2046BDE81040BC
:1036F000FFF7C6BF38B5C4B20D4620460A21FEF713
:103700004DFC20EA0502D2B220460A21BDE838402D
:10371000FEF72CBC10B50446FFF7C1FF20461F2161
:10372000BDE81040FFF7E6BF10B5C0B20C460B2154
:10373000FEF734FC204010BD1F21FFF7F5BF0A46FD
:10374000C0B20B21FEF712BC1F21FFF7F8BF38B53E
:10375000C4B20D4620461721FEF720FC20EA0502E0
:10376000D2B220461721BDE83840FEF7FFBB70B546
:10377000C4B2064604212046FEF710FC042100F0E6
:10378000FB0205462046FEF7F1FB3046F021FFF72D
:10379000DEFF05F0F80220460421FEF7E7FB492290
:1037A00020212046FEF7E2FB0220FEF727FC204600
:1037B00001222121FEF7DAFB20469A224121FEF761
:1037C000D5FB204601224A21FEF7D0FB20460122EC
:1037D0004B21FEF7CBFB204600224B21FEF7C6FB18
:1037E000204601225621FEF7C1FB20460122582126
:1037F000FEF7BCFB204601224021FEF7B7FB204626
:10380000FF220B21FEF7B2FBBDE870400220FEF75D
:10381000F5BB0000054BD3F8882042F47002C3F8D2
:1038200088204FF000629A60704700BF00ED00E012
:1038300008B50B4B1A6842F400721A601A6842F419
:1038400080621A601A6842F480721A60032000F0E5
:103850002FF80020FEF7C6FEFEF75AFC002008BD38
:10386000003C0240034A044B11681B780B44136070
:10387000704700BF08320020D0000020014B1868BC
:10388000704700BF0832002038B50446FFF7F6FF46
:10389000631C1CBF054B1B78054618BFE418FFF7D7
:1038A000EDFF431BA342FAD338BD00BFD000002078
:1038B0000749CA6822F4E0620302120403F4E063D9
:1038C000120C134343F0BF6343F40033CB607047E3
:1038D00000ED00E0164B30B5DC68C4F30224C4F1FF
:1038E0000703251D042B28BF0423062D4FF0FF35A9
:1038F0008CBF033C002405FA03F321EA0303A5402F
:1039000022EA0502A340002843EA0203ACBF00F10B
:103910006040084A4FEA0313B8BF00F00F00DBB263
:10392000AABF00F56140135480F8003330BD00BFDA
:1039300000ED00E014ED00E0002807DB044A410937
:10394000012300F01F00834042F82130704700BF80
:1039500000E100E010B5044650B1437903F0FF02E6
:1039600013B90271FEF7F4FB01236371002010BD4F
:103970000120FCE710B5044620B390F8393003F07D
:10398000FF021BB980F83820FEF7FAFB022384F807
:103990003930236861681A6822F440320A431A6099
:1039A0005A6BA16822F007020A435A631A6CE16855
:1039B0006FF30D020A431A6400200123E06384F8C8
:1039C000393010BD0120FCE770477047036870B5BF
:1039D0005E681D68F207044614D5E90512D51A6819
:1039E00022F480721A60C26B42F00102C2630122AB
:1039F0009A60042380F83930002380F83830436916
:103A000003B19847B20616D5AB0414D523681A68DB
:103A100022F400521A6020229A60E36B43F0020302
:103A2000E363042384F83930002384F83830636971
:103A30000BB120469847300716D5290514D52368C1
:103A40001A6822F400621A6008229A60E36B43F05D
:103A50000403E363042384F83930002384F8383006
:103A600063690BB12046984772070BD56B0509D5E2
:103A700023681A6822F480621A6004229A60204641
:103A8000FFF7A2FFB00714D5A90512D523681A685D
:103A900022F400721A6002229A60E36BE36301234E
:103AA00084F83930002384F8383023690BB120467C
:103AB0009847F20613D5EB0411D523681A6822F44F
:103AC00080521A6010229A60E36BE363012384F84A
:103AD0003930002384F838302046FFF776FF70BD78
:103AE000F0B590F83820012A03464FF002002BD0A1
:103AF000012283F8382083F8390003EB0112D2E960
:103B00000740556A174F44EA0040093C012C9CBF0E
:103B100005F07F4210434FEA01161A6888BF40EA59
:103B2000056091B9516A394001435162012C99698C
:103B3000916103D8596A21F07F41916201220020EE
:103B400083F8392083F83800F0BDD169394001434A
:103B5000D1619919012C896911619CBF25F07F45BC
:103B60001562EBE7F0FFFC002DE9F74FDFF8BC91A1
:103B70006C4A00230D6801249C4004EA0506AC430E
:103B800040F0B7804D68032705F003044FEA43086F
:103B900007FA08FC671E012F6FEA0C0C34D88768FF
:103BA00007EA0C0ECF6807FA08F747EA0E078760A6
:103BB000476827EA060EC5F300179F4047EA0E073D
:103BC0004760C76807EA0C0E8F6807FA08F747EAEC
:103BD0000E07022CC76019D14FEAD30A00EB8A0AFC
:103BE00003F0070BDAF820704FEA8B0B4FF00F0E43
:103BF0000EFA0BFE27EA0E0E0F6907FA0BF747EADB
:103C00000E07CAF8207001E0032CDAD1076804FA25
:103C100008F407EA0C073C4315F4403F046068D001
:103C200000240194D9F8444044F48044C9F8444045
:103C3000D9F8444023F0030707F1804704F4804497
:103C400007F59C37019403F0030C019CD7F808E0BA
:103C50004FEA8C0C0F2404FA0CF42EEA040E324CBA
:103C6000A0424DD004F58064A0424BD004F580649E
:103C7000A04249D004F58064A04247D004F5806496
:103C8000A04245D004F58064A04243D004F580648E
:103C9000A04241D004F58064A0423FD004F5806486
:103CA000A0423DD004F58064A04214BF0A24092438
:103CB00004FA0CF444EA0E04BC609468F74315F46B
:103CC000801F0CBF3C4034439460D46815F4001F3F
:103CD0000CBF3C403443D460546815F4003F0CBF23
:103CE0003C40344354601468ED0354BF3C403443BB
:103CF00014600133102B7FF43DAF03B0BDE8F08FAB
:103D00000024D5E70124D3E70224D1E70324CFE739
:103D10000424CDE70524CBE70624C9E70724C7E739
:103D20000824C5E7003C0140000002400038024082
:103D30000369194214BF0120002070470AB1816154
:103D400070470904FBE7436901EA030221EA030122
:103D500041EA02418161704701684B6913F4806355
:103D60004FF0000210D06FF480634B612023026398
:103D700080F83D3080F83E20036C80F83C2043F012
:103D80000403036401207047184670472DE9F84684
:103D900006460F4691461D464FEA114A3368BAF16E
:103DA000010F0CBF5C699C6927EA0404A4B2B4FA51
:103DB00084F46409A14501D0002025E06A1CEED0FE
:103DC000FFF75CFD089BC01AA84201D8002DE5D181
:103DD0003368BAF1010F0CBF5B699B6927EA0303E3
:103DE0009BB2B3FA83F35B099945D7D10023202214
:103DF000336386F83D2086F83E30326C86F83C30DE
:103E000042F0200232640120BDE8F8862DE9F0413D
:103E100004460F46164698462568686927EA00005A
:103E200080B2C0B16B695A0517D52B6843F4007393
:103E30002B606FF480636B6120220023236384F87E
:103E40003D2084F83E30236C43F0040323640023B8
:103E500084F83C300120BDE8F081731CDDD0FFF711
:103E60000DFDA0EB0800B04201D8002ED4D123688C
:103E70005A6927EA020292B2002ACDD000232022FA
:103E8000236384F83D2084F83E30236C1343DDE740
:103E900070B504460D46164623685B691B0601D5BE
:103EA00000201EE02046FFF757FFC8B96A1CF3D078
:103EB000FFF7E4FC801BA84201D8002DECD1236859
:103EC0005B6913F08003E7D12022236384F83D204F
:103ED00084F83E30226C84F83C3042F020022264A8
:103EE000012070BD2DE9F0431546026885B0DDE97B
:103EF0000C789946136843F4807313600E463B4672
:103F0000CDF8008000224FF001110446FFF73EFF7C
:103F1000236838B11B68DB0502D54FF400732364B6
:103F2000032620E006F0FE061E611A4943463A4683
:103F30002046FFF76BFFA8B9236803905A690392E4
:103F40009B690393424639462046039BFFF7A0FF37
:103F5000064660B1236C042B01BF2268136843F44A
:103F6000007313600126304605B0BDE8F083B9F157
:103F7000010F236802D1EDB21D61F4E72A0A1A612C
:103F8000394642462046FFF783FF0028E2D12368E6
:103F9000F1E700BF020001002DE9FF479A460368E0
:103FA00015461A6842F480621A601A68DDE90C78D6
:103FB00042F480721A600E463B46CDF80080002223
:103FC0004FF001110446FFF7E1FE236838B11B688A
:103FD000DB0544BF4FF400732364032021E05FFA44
:103FE00086F906F0FE061E612B4943463A462046F6
:103FF000FFF70CFFA0B9236803905A6903929B69ED
:104000000393424639462046039BFFF741FF58B1D0
:10401000236C042B01BF2268136843F40073136000
:10402000012004B0BDE8F087BAF1010F23681AD16E
:10403000EDB242461D6139462046FFF729FF024690
:104040000028E5D121680B6843F480730B6020469B
:10405000CDF800803B464FF00111FFF797FE226834
:1040600060B11368B4E72A0A1A613946424620460D
:10407000FFF70EFF0028CBD12368D9E749F00103F1
:104080001361054943463A462046FFF7BFFE003814
:1040900018BF0120C5E700BF0200010070B504464B
:1040A0000D46164623685B695B0701D500201EE0BC
:1040B0002046FFF751FEC8B96A1CF3D0FFF7DEFBBC
:1040C000801BA84201D8002DECD123685B6913F056
:1040D0000403E7D12022236384F83D2084F83E3096
:1040E000226C84F83C3042F020022264012070BD32
:1040F00070B504460D46164621684B6913F040031F
:1041000001D0002011E04A69D2060FD56FF01002ED
:104110004A612022236384F83D2084F83E30236CDA
:104120002364002384F83C30012070BDFFF7A6FB18
:10413000801BA84201D8002DDED123685B6913F0F3
:104140004003D9D12022236384F83D2084F83E30F7
:10415000236C1343E4E7000070B5044608B901205E
:1041600070BD90F83D3003F0FF021BB980F83C2091
:10417000FEF728F8242384F83D3023681A6822F0DB
:1041800001021A601A6842F400421A601A6822F4A6
:1041900000421A6001F080FB3F4B65689D4294BF6E
:1041A0003E4B3F4B98428CBF00230123002BD6D1BE
:1041B0002268394E51683B4BB0FBF3F321F03F01CD
:1041C0001943B542516088BF4FF49676116A88BF93
:1041D000734321F03F0184BF4FF47A76B3FBF6F3CB
:1041E00001330B431362D169431E2B4821F44F4125
:1041F000854221F0FF0132D86D0040F6FC70B3FB20
:10420000F5F30133034242D0C3F30B031943D161E9
:10421000D4E907301168034321F0C0010B43136058
:104220009168D4E9030321F40341034321F0FF0122
:104230000B439360D4E90530D168034321F0FF01BB
:104240000B43D360136843F0010313600020202365
:10425000206484F83D30206384F83E0080E7A06845
:1042600050B905EB4505B3FBF5F30133C3F30B037D
:104270007BB143F40043C9E719206843B3FBF0F373
:104280000133C3F30B0323B143F44043BEE70423DC
:10429000BCE70123BAE700BFA08601007F841E00AF
:1042A000FF083D0040420F002DE9F74304469946C0
:1042B0000C9E0F469046FFF7E1FA94F83D30202B14
:1042C000054603D0022003B0BDE8F08300903C49CE
:1042D000192301222046FFF759FD0028F2D194F856
:1042E0003C30012BEED02068012384F83C30036879
:1042F000D9075EBF036843F001030360036823F43A
:1043000000630360212384F83D30402384F83E306D
:10431000002323640A9B6362BDF82C306385638DA0
:104320002385284BE3624246CDE900654B4639467A
:104330002046FFF7D7FD00282AD00120C3E7FFF76A
:10434000A7FD40B1236C042B01BF2268136843F41E
:1043500000731360F1E7636A27681A4612F8011BBD
:1043600039616262628D218D013A92B262857A6909
:10437000481E80B2520720850AD548B15A783A6162
:1043800002336362638D013B02399BB221856385F1
:10439000238D2A4631462046002BD0D1FFF77EFEE2
:1043A0000028CFD12268136843F4007313602023E0
:1043B00084F83D3084F83C0084F83E0083E700BF79
:1043C000020010000000FFFF2DE9F043044687B013
:1043D0009946109F0D469046FFF750FA94F83D30ED
:1043E000202B064604D00225284607B0BDE8F083FE
:1043F00000907A49192301222046FFF7C7FC0028C4
:10440000F1D194F83C30012BEDD02068012384F8E1
:104410003C300368DB075EBF036843F001030360C1
:10442000036823F400630360222384F83D304023B3
:1044300084F83E30002323640E9B6362BDF83C3059
:104440006385638D2385664BE3622946CDE900765B
:104450004B4642462046FFF79FFD054608B1012521
:10446000C2E7228D2368B2B902905A6902929A6912
:104470000292029A1A6842F400721A60DFF86481AC
:10448000238D002B2CD1202284F83D2084F83C3051
:1044900084F83E30A8E7012A0AD11A6822F4806223
:1044A0001A6003905A6903929A690392039AE1E7AA
:1044B000022A0ED11A6822F480621A601A6842F445
:1044C00000621A6004905A6904929B690493049BE9
:1044D000D4E705905A6905929B690593059BCDE742
:1044E000032B56D8012B15D1324639462046FFF70B
:1044F000FFFD0028B3D123681A69636A1A70636AE2
:1045000001336362238D013B2385638D013B9BB2A5
:104510006385B5E7022B00963B464FF0000241460B
:10452000204619D1FFF732FC002898D123681A6879
:1045300042F400721A601A69636A1A70626A531C44
:104540006362238D013B2385638D013B9BB26385B1
:1045500023681B695370D2E7FFF718FC0246002856
:104560007FF47DAF2368196821F4806119601969AF
:10457000636A1970636A01336362238D013B23858B
:10458000638D013B9BB26385414600963B462046C6
:10459000C8E7324639462046FFF7AAFD00287FF4D7
:1045A0005EAF23681A69636A1A70628D616A013AA4
:1045B00092B24B1C628522686362238D5069013B75
:1045C0009BB2400723857FF55BAF032B02BF1368C7
:1045D00023F48063136013694B7090E702001000AE
:1045E0000000FFFF0400010010B590F83D30202BC3
:1045F000DCB216D1242380F83D3003681A6822F01B
:1046000001021A605A6A22F010025A625A6A114371
:1046100059621A6842F001021A6080F83D40002099
:1046200010BD0220FCE730B590F83D30202BDCB205
:1046300016D10268242380F83D30136823F001036B
:104640001360556A4FF6F0732B400B439BB25362D5
:10465000136843F00103136080F83D40002030BD33
:104660000220FCE70068D20184328318F0B5C768E5
:104670005D684C680E6805F470455D60C56806F1BC
:10468000010CC5F30B45C7F30B472744654445EAC6
:1046900007455D60C768CD68C7F30A072F449D686A
:1046A00005F470459D60D0F80CC08D68CCF30A0C01
:1046B0000135654445EA07459D601D69D1F810C084
:1046C0008F6925F007051D61C3F810C091F83050BF
:1046D00045EA076591F8317045EA072591F832708F
:1046E00045EA07459D615D6925F0FF055D614D69FE
:1046F0005D61DD6925F4E06525F00705DD61D1E93F
:1047000007573D43DD61BCF1070F4D6A9D629CBFB9
:104710000D4D15F80C70DD6A05F0E025DD6288BFEF
:1047200001278D6AC96AA41B7C437D43033444EA94
:104730000544DC621C6B6FF30A041C631963835825
:1047400043F001038350F0BD784E020838B50446AB
:1047500000284ED090F8A13003F0FF021BB980F87A
:10476000A020FDF78BFD022384F8A13023689A690D
:1047700022F070429A61D4E901200243E06899690D
:104780000243206902430A439A61D4E9051242EACE
:1047900001429A60D4E9071242EA0142DA60D4E9A0
:1047A000091242EA01421A61D4E90B1242EA0142BB
:1047B0005A61DA6A94F8350094F8361002F07F42B4
:1047C000DA62DD6A94F834202A4342EA002242EA9F
:1047D0000142DA625A6B42F006025A639A6942F069
:1047E00001029A6100200123C4F8A40084F8A130DA
:1047F00038BD0120FCE770477047036870B59E6BB9
:104800005D6B7207044614D5690712D55A6B22F006
:1048100004025A630422DA63D0F8A43043F001039F
:10482000C0F8A430002380F8A12080F8A030FFF762
:10483000E2FFB20716D5AB0714D523685A6B22F0F6
:1048400002025A630222DA63D4F8A4301343C4F894
:10485000A430042384F8A130002384F8A03020463B
:10486000FFF7C9FFF00710D5E9070ED523685A6B8B
:1048700022F001025A630122DA63002384F8A120A6
:1048800084F8A0302046FCF7CFFE320711D52B0765
:104890000FD523685A6B22F008025A630822DA63A4
:1048A000012384F8A130002384F8A0302046FFF7CC
:1048B000A3FF70BD2DE9F04190F8A030012B064612
:1048C0000F4694464FF002001FD04FF0010886F8C3
:1048D000A08086F8A10034240D4604FB02640FCDAD
:1048E00038340FC40FCD0FC40FCD0FC42B68236015
:1048F000304662463946FFF7B5FE33680020C3F8FC
:10490000248086F8A18086F8A000BDE8F081000030
:1049100090F8A020012A03464FF0020012D01A6836
:1049200083F8A100506B20F0010050630648016439
:10493000516B41F0010151630020012283F8A12055
:1049400083F8A000704700BF00680140F7B5044637
:1049500010B390F89534056803F0FF021BB980F896
:104960009424FCF733FF0323B5F1A04F84F895346A
:1049700004BF0023A371206802F0CAF8237C8DF8DD
:104980000030251D95E80E00206802F006F801466B
:1049900030B1022384F895340125284603B0F0BDD8
:1049A000206802F0BBF80028F3D1267904F1140343
:1049B00001270246C1B28E4203F124031BD8002115
:1049C00004F515730A46C8B2864203F1240320D8C1
:1049D000237C8DF8003095E80E00206802F01AF96B
:1049E00005460028D5D101236074206884F89534E9
:1049F00002F054FCD1E723F80A0C43E9072203F83C
:104A0000237C03F8241C03F8202C43F8142C0130D9
:104A1000D0E743E9072203F8232C03F8240C03F81A
:104A2000202C43F8142C0131CDE710B50446006862
:104A300094F89434012B15D0012384F89434C3687E
:104A40005B0606D5637B012B02BF836B43F4803387
:104A5000836302F057F8206802F012FC002084F80B
:104A6000940410BD0220FCE710B590F89424012AAC
:104A700004460AD0012280F894244174006802F0B0
:104A8000EFFB002084F8940410BD0220FCE770B511
:104A900001F00F0606EBC60411F0800F05464FEA41
:104AA00084044FF0240020D000FB065004F11401D0
:104AB000012429444475C2F30A028A604A780E70C0
:104AC0000B7102B14E83022B04BF00234B7195F88A
:104AD0009434012B12D00123286885F8943402F015
:104AE0005EF9002085F8940470BD00FB065004F5C3
:104AF00015710024294480F85542DCE70220F3E7D1
:104B000010B5044601F00F0000EBC00311F0800F58
:104B10004FEA83034FF0240215D002FB004203F159
:104B20001401012321445375087094F89434012B27
:104B300012D00123206884F8943402F06FF9002029
:104B400084F8940410BD02FB004203F515710023A4
:104B5000214482F85532E7E70220F3E770B501F00F
:104B60000F05242404FB050104FB0504C4E9982374
:104B70000023C4F8683284F8553284F8545216463B
:104B800082790068012A01F5157108BFC4F87062C6
:104B900002F0F0F9002070BD70B501F00F0524247B
:104BA00004FB050104FB0504C4E908230023A362F8
:104BB0000123637525751646827900689A4201F1D2
:104BC000140108BF266302F0D5F9002070BD38B586
:104BD000037901F00F05AB4204462BD311F0800F8F
:104BE0004FF024001DD000FB054100FB05400123D0
:104BF0001431437501238B700D7094F894249A42FC
:104C00001AD0206884F8943402F0D6FA2DB9A1792C
:104C1000206804F29C4202F08FFB002084F8940488
:104C200038BD00FB01431A4603F51571002382F8D5
:104C30005532DFE70120F3E70220F1E738B50379C9
:104C400001F00F029342044629D302EBC20311F094
:104C5000800F4FEA83034FF0240017D000FB02407F
:104C600003F1140101232144437500258D700A705E
:104C700094F89434012B14D00123206884F89434E0
:104C800002F0C5FA84F89454284638BD00FB02406F
:104C900003F515710023214480F85532E5E7012022
:104CA000F3E70220F1E701F00F0303EBC3030A0669
:104CB0004FEA83034CBF03F1140103F5157101445E
:104CC000006802F001B900002DE9F04F066889B0D4
:104CD0000446304602F01EFB0390002840F0568147
:104CE000206802F0E9FA002800F05081D6F8083870
:104CF0002068C3F30D23C4F8D43402F0DDFA87072B
:104D000048BF2268206842BF536903F00203536121
:104D100002F0D2FAC00606F500652DD52268936927
:104D200023F010039361D6F8208008F4F013B3F554
:104D3000802F08F00F0740F02C8147F6F07318EA37
:104D4000030F14D0242303FB0747C8F30A19D7F82D
:104D500060124A46304602F00FFAD7F860324B44F0
:104D6000C7F86032D7F868324B44C7F86832226817
:104D7000936943F010039361206802F09DFA0103E8
:104D800000F11A81206802F097FA42030DD52068DD
:104D900002F09EFA2746049006F5106B4FF0000AC9
:104DA000049B2068002B40F0D181206802F084FA37
:104DB000002813DA6B6823F001036B6094F8CC349D
:104DC000012B40F06982002184F8CC14204600F0C9
:104DD000E6FA2268536903F000435361206802F049
:104DE0006BFA07050AD5AB68D80702D52046FCF751
:104DF00063FD2268536903F400635361206802F085
:104E00005BFAC10433D56B68206823F001036B6043
:104E1000102101F0B3FE207906F510634FF67F31C3
:104E2000039A904200F23C82EB6943F00113EB617C
:104E3000E37B002B00F05082D5F8843043F00B0365
:104E4000C5F884306B6C43F00B036B64D6F8003804
:104E5000206823F4FE63C6F8003804F29C42A1796E
:104E600002F06AFA2268536903F4805353612068A0
:104E700002F022FA820416D5206802F04FFA206868
:104E800001F082FFE071276800F000FDE279014641
:104E9000384601F0C7FD2046FCF7FBFC2268536949
:104EA00003F400535361206802F006FA030707D5A4
:104EB0002046FCF7EAFC2268536903F008035361BB
:104EC000206802F0F9F9070600F11182206802F06B
:104ED000F3F9C0020CD5A04606F512690127237923
:104EE000BB4200F21D822268536903F480135361B0
:104EF000206802F0E1F981022BD594F804E0234602
:104F000006F532614FF0010CE6451DD993F87C722D
:104F10000868012F40F01A82002880F21782D4F826
:104F2000D42482EA1040C20700F1108283F87B7219
:104F3000B06940F08000B0617069000600F106823F
:104F40006B6843F400736B602268536903F40013C9
:104F50005361206802F0B0F9410007D52046FCF704
:104F6000CFFC2268536903F080435361206802F04C
:104F7000A3F942070AD523685D686B0702D520466E
:104F8000FCF7C2FC226853682B43536009B0BDE8AC
:104F9000F08FB3F5402F7FF4EAAE082204F29C4173
:104FA000304602F0E9F8242303FB0747C8F30A1848
:104FB000D7F868324344D8E6206802F081F906F554
:104FC00030680490A2460027049B2068002B3FF421
:104FD000D9AE049BDB0778D55FFA87FB594602F010
:104FE0007FF910F0010F81461FD020680123C8F817
:104FF000083094F806C0016C00F5306303EB4713EA
:10500000BCF1010F9A6840F08B8012F0080F07D0B6
:10501000AF48814209D9120407D54FF4004203E09A
:1050200012F0200F5AD020229A6019F0080F21D0D8
:105030000823C8F808302368A5491A6C03F53063C3
:1050400003EB47138A42986804D9010444BF4FF424
:105050000040986020460592FCF700FC059A9C49A8
:105060008A4207D9A179012904D1206804F29C421F
:1050700002F062F919F0100F1CBF1023C8F80830B5
:1050800019F0020F14D073691A0642BF6B6843F41B
:1050900080636B609AF85732012B06D100238AF89F
:1050A000573259462046FCF723FC0223C8F8083043
:1050B00019F0200F1CBF2023C8F8083019F4005F36
:1050C0001CBF4FF40053C8F80830049B5B0801373D
:1050D000049308F120080AF1240A75E7DFF8F0C10B
:1050E000614501D9120498D41A69DAF87432C2F30E
:1050F00012029B1ACAF868326FB9D4F864222AB92E
:1051000004F29C42012102F017F904E0D4F8602275
:105110001A44C4F8602259462046FCF7A5FB84E7F0
:10512000DFF8B0C1614507D111043FF576AF9006B5
:10513000F1D520229A60EEE7002FECD1D4F864324A
:10514000002BE8D104F29C423946DCE7049BDB07E4
:1051500040F199805FFA8AF31946059302F0C9F885
:1051600010F0010F80461FD06B6B01210AF00F0277
:1051700001FA02F223EA02036B63CBF80810A1796B
:1051800001290DD1D7E9072313443B62BAF1000F7F
:1051900006D1636A23B9206804F29C4202F0CCF87D
:1051A00005992046FCF769FB18F0080F1CBF08237F
:1051B000CBF8083018F0100F1CBF1023CBF80830C4
:1051C00018F0400F1CBF4023CBF8083018F0020F36
:1051D0000FD05146304601F0D1FCFB7D012B05D1AB
:1051E00000230599FB752046FCF786FB0223CBF8CC
:1051F00008302368069318F0800F44D0D7E90932AD
:105200009A4240D8A3EB0208FB69984528BF98460C
:10521000069B03F5106308F1030803EB4A134FEAFA
:1052200098080793079B996989B24145D7E90932E4
:1052300027D393420BD8069B0AF00F00D3F83428EB
:105240000121814022EA0102C3F834281BE0A3EBCC
:105250000209FB69059A0698994528BF9946A379E2
:105260000093396A1FFA89F301F070FE3B6A4B44E0
:105270003B62BB6A09F103084B444FEA9808BB62E2
:10528000D0E79342D7D9049B5B080AF1010A049343
:1052900024370BF1200B83E52046FCF725FB98E52E
:1052A00099601A6822F400121A60C3F80812D3F841
:1052B000002222F40012C3F80022D3F8002242F0A8
:1052C0000062C3F80022039A013203922033A7E55B
:1052D0000A30544F0A31544F6B6943F4005343F082
:1052E0002B036B612B6943F00B032B61AEE5B369B4
:1052F00023F08003B361012704F257284FF02409FB
:105300002379BB427FF6E2AD09FB07F318F80330BF
:10531000012B03D1F9B22046FFF7C5FC0137EFE7B7
:1053200098F83C30D9F80020012B09D1002A07DA7F
:1053300067F07F0188F83B30C9B22046FFF7B3FC25
:10534000013708F1240809F12009C8E50CF1010C26
:1053500024332031D8E500BF006870B5436A1204D9
:1053600019B913438362002070BD846A4E1E03EB9B
:1053700014430024B44205D33F3100EB81001343B2
:105380004360F0E704F1400500EB850501346D68EA
:1053900003EB1543EEE7036800205962704770473E
:1053A0002DE9F341044640B30368DE0710D42368B7
:1053B0009D075BD42368190700F19D8023685A0775
:1053C00000F1BD80A369002B40F0248100202CE077
:1053D0008D4B9A6802F00C02042A07D09A6802F0FA
:1053E0000C02082A0BD15B68590208D5864B1B6852
:1053F0009A03DCD56368002BD9D1012015E06368DE
:10540000814DB3F5803F13D12B6843F480332B607B
:10541000FEF734FA7C4E054633689B03C7D4FEF78B
:105420002DFA401B6428F7D9032002B0BDE8F081B3
:10543000B3F5A02F04D12B6843F480232B60E3E75E
:105440002A6822F480322A602A6822F480222A60A4
:10545000002BDDD1FEF712FA06462B689F03A6D576
:10546000FEF70CFA801B6428F7D9DDE7664B9A68D3
:1054700012F00C0F07D09A6802F00C02082A11D122
:105480005B685D020ED4604A1368990702D5E36831
:10549000012BB2D11368216923F0F80343EAC10359
:1054A000136087E7E268594BB2B101221A60FEF738
:1054B000E5F9554D06462B689B0707D52B682269F1
:1054C00023F0F80343EAC2032B6073E7FEF7D6F933
:1054D000801B0228EFD9A7E71A60FEF7CFF94A4EE2
:1054E000054633689F077FF565AFFEF7C7F9401B98
:1054F0000228F6D998E76269444B82B10122C3F8C9
:10550000802EFEF7BBF9404E0546736F9B073FF5B3
:1055100055AFFEF7B3F9401B0228F6D984E7C3F86C
:10552000802EFEF7ABF9384E0546736F9F077FF567
:1055300045AFFEF7A3F9401B0228F6D974E7324BBA
:105540001A6C12F0805228D101921A6C42F08052EB
:105550001A641B6C03F080530193019B01272C4DAF
:105560002B68D8051BD5A368274D012B27D12B6F9E
:1055700043F001032B67FEF781F9234E054641F204
:105580008838336F9A0739D5002F3FF41BAF1E4A76
:10559000136C23F08053136414E70027DFE72B68B4
:1055A00043F480732B60FEF769F906462B68D90532
:1055B000D9D4FEF763F9801B0228F7D934E7052B0D
:1055C00004D12B6F43F004032B67D0E72A6F22F03E
:1055D00001022A672A6F22F004022A67002BCAD12F
:1055E000FEF74CF941F2883806462B6F9B07CBD566
:1055F000FEF744F9801B4045F7D915E7FEF73EF961
:10560000401B4045BDD90FE700380240000047422B
:1056100000700040374DAA6802F00C02082A3ED004
:10562000022B354B4FF000021A662BD1FEF726F9FC
:1056300006462B6899011FD4D4E907321343626AE6
:1056400043EA8213E26A43EA0263A26A5208013A19
:1056500043EA02436B60284B264D01221A66FEF78F
:105660000DF904462B689A013FF5B0AEFEF706F936
:10567000001B0228F6D9D7E6FEF700F9801B0228A6
:10568000D7D9D1E6FEF7FAF804462B689B017FF5DF
:105690009DAEFEF7F3F8001B0228F6D9C4E6012BF5
:1056A0003FF4ABAE6B68E26903F4800191427FF492
:1056B000A4AE216A03F03F028A427FF49EAE616A83
:1056C00047F6C0721A40B2EB811F7FF496AEA26A11
:1056D000520803F44031013AB1EB024F7FF48DAE32
:1056E000E26A03F07063B3EB026F14BF0120002085
:1056F0009BE600BF0038024000004742134908B54E
:105700008B6803F00C03042B1CD0082B1CD14A68B7
:105710004B68496813F4800314BF0D480D48C1F36A
:10572000881118BF002302F03F02A1FB0001FAF725
:1057300007FE064B5B68C3F3014301335B00B0FB1C
:10574000F3F008BD0248FCE70248FAE700380240DF
:1057500000127A000024F4002DE9F0410D460446C1
:1057600010B90120BDE8F081434B1A6802F00F0226
:105770008A4228D321688F072DD4C80740D43E4BD6
:105780001A6802F00F02AA4265D8226851076BD44A
:10579000130707D5394A2169936823F4604343EA24
:1057A000C1039360FFF7AAFF344B354A9B68C3F3EC
:1057B0000313D35CD840334B1860334B1868FCF7A5
:1057C00011FF0020CEE7CAB21A701B6803F00F0366
:1057D0008B42C6D1CEE7294B11F0040F1EBF9A6849
:1057E00042F4E0529A600E0742BF9A6842F4604267
:1057F0009A609A68A06822F0F00202439A60BCE7BF
:1058000062681E4B012A1CD11B6813F4003FA8D00C
:105810001A4EB36823F003031343B360FEF72EF868
:1058200041F288380746B368626803F00C03B3EBB3
:10583000820FA4D0FEF722F8C01B4045F3D9032005
:1058400090E7911E01291B6802D813F0007FDEE764
:1058500013F0020FDBE7EAB21A701B6803F00F03C4
:10586000AB427FF47EAF90E70449E0688B6823F495
:10587000E05303438B608BE7003C0240003802405A
:10588000684E0208CC000020D4000020014B1868AC
:10589000704700BFCC000020044B054A9B68C3F34F
:1058A0008223D35C034A1068D84070470038024016
:1058B000604E0208CC000020044B054A9B68C3F3ED
:1058C0004233D35C034A1068D84070470038024026
:1058D000604E0208CC0000200F2303600B4B9A6837
:1058E00002F0030242609A6802F0F00282609A6855
:1058F00002F4E052C2609B68DB0803F4E0530361EA
:10590000034B1B6803F00F030B6070470038024025
:10591000003C0240036813F0430FF7B5044640F023
:105920008880236813F00C0F45D08C4B8C4D0022DF
:105930001A67FDF7A3FF06462B68990000F1CB809C
:1059400021684A0715D5D4E90403D5F888201B0639
:1059500002F0E04243EA80131343C5F88830D5F8DB
:105960008C30226A23F4F853013A43EA0223C5F843
:105970008C300B0714D57A4AA369D2F888102069B5
:105980001B0701F0706143EA80130B43C2F88830B3
:10599000D2F88C30616A23F440330B43C2F88C3068
:1059A0006E4B6F4E01221A67FDF768FF054633689C
:1059B0009F0040F197802368980634D50023019317
:1059C000674B684D1A6C42F080521A641B6C03F0EE
:1059D00080530193019B2B6843F480732B60FDF788
:1059E0004DFF06462B68D80540F183805C4DA26AC6
:1059F0002B6F13F4407340F08380A36A03F440726A
:105A0000B2F5407F564A40F09E80916823F0704086
:105A100021F4F81120F4407001439160116FC3F339
:105A20000B030B4313672368DB0600F19080002013
:105A30004FE04A4B4A4E00229A66FDF71FFF05468B
:105A400033681F013FD42168C80741BFD4E901234F
:105A50001B0743EA8213C6F884308A0715D5404AEB
:105A6000E368D2F8840065681B0600F0E04043EA72
:105A700085130343C2F88430D2F88C00E36920F028
:105A80001F00013B0343C2F88C304B060AD5E36884
:105A900062681B0643EA8213A26843EA0273304A33
:105AA000C2F884302D4B2E4E01229A66FDF7E6FE99
:105AB000054633681F013FF534AFFDF7DFFE401B9D
:105AC0000228F6D904E0FDF7D9FE401B0228B7D919
:105AD000032003B0F0BDFDF7D1FE801B02287FF646
