:020000040800F2
:1000000000000320350A0008AD2B0008AF2B0008C4
:10001000B12B0008B32B0008B52B0008000000002E
:100020000000000000000000000000000183000844
:10003000B72B00080000000091830008C17B000876
:10004000850A0008850A0008850A0008850A000854
:10005000850A0008850A0008850A0008850A000844
:10006000850A0008850A0008850A0008850A000834
:10007000850A0008850A0008850A0008850A000824
:10008000850A0008850A0008850A0008850A000814
:10009000850A0008850A0008850A0008850A000804
:1000A000850A0008850A0008850A0008850A0008F4
:1000B000850A0008850A0008850A0008850A0008E4
:1000C000850A0008850A0008850A0008850A0008D4
:1000D000850A0008850A0008850A0008850A0008C4
:1000E000850A0008850A0008850A0008850A0008B4
:1000F000850A0008850A0008850A0008850A0008A4
:10010000850A0008850A0008850A0008850A000893
:10011000850A0008850A0008B92B0008850A00082E
:10012000850A0008850A0008850A0008850A000873
:10013000850A0008850A0008850A0008850A000863
:10014000850A0008850A0008850A0008850A000853
:10015000850A0008850A0008850A0008850A000843
:10016000850A0008850A0008850A0008850A000833
:10017000850A0008C52B0008850A00080000000059
:10018000850A0008850A0008850A0008850A000813
:10019000850A0008850A0008850A0008850A000803
:0C01A000D12B0008850A0008DD2B0008A8
:1001B00010B5054C237833B9044B13B10448AFF3A1
:1001C00000800123237010BD800400200000000087
:1001D0003448020808B5034B1BB103490348AFF389
:1001E000008008BD0000000084040020344802089C
:1001F000034613F8012B002AFBD1181A0138704767
:1002000001F0FF01102A2BDB10F0070F08D010F8C7
:10021000013B013A8B422DD010F0070F42B3F6D1CB
:10022000F0B441EA012141EA014122F007047FF0E4
:1002300000070023F0E80256083C85EA010586EA3B
:10024000010685FA47F5A3FA87F586FA47F6A5FA77
:1002500087F68EB9EED1F0BC01F0FF0102F0070283
:1002600032B110F8013B013A83EA010313B1F8D12E
:100270000020704701387047002D06BF354603380F
:10028000073815F0010F07D1013015F4807F02BF48
:10029000013015F4C03F0130F0BC0138704700BF99
:1002A00081F0004102E000BF83F0004330B54FEA27
:1002B00041044FEA430594EA050F08BF90EA020F94
:1002C0001FBF54EA000C55EA020C7FEA645C7FEA27
:1002D000655C00F0E2804FEA5454D4EB5555B8BF4A
:1002E0006D420CDD2C4480EA020281EA030382EABB
:1002F000000083EA010180EA020281EA0303362D4D
:1003000088BF30BD11F0004F4FEA01314FF4801C1F
:100310004CEA113102D0404261EB410113F0004F31
:100320004FEA03334CEA133302D0524263EB4303E8
:1003300094EA050F00F0A780A4F10104D5F1200E86
:100340000DDB02FA0EFC22FA05F2801841F10001E1
:1003500003FA0EF2801843FA05F359410EE0A5F1B5
:1003600020050EF1200E012A03FA0EFC28BF4CF0E6
:10037000020C43FA05F3C01851EBE37101F000459C
:1003800007D54FF0000EDCF1000C7EEB00006EEBA9
:100390000101B1F5801F1BD3B1F5001F0CD3490833
:1003A0005FEA30004FEA3C0C04F101044FEA44528A
:1003B00012F5800F80F09A80BCF1004F08BF5FEA11
:1003C000500C50F1000041EB045141EA050130BDF1
:1003D0005FEA4C0C404141EB0101013C28BFB1F503
:1003E000801FE9D291F0000F04BF01460020B1FA4E
:1003F00081F308BF2033A3F10B03B3F120020CDA21
:100400000C3208DD02F1140CC2F10C0201FA0CF0FE
:1004100021FA02F10CE002F11402D8BFC2F1200C63
:1004200001FA02F120FA0CFCDCBF41EA0C01904019
:10043000E41AA2BF01EB0451294330BD6FEA040462
:100440001F3C1CDA0C340EDC04F11404C4F120024D
:1004500020FA04F001FA02F340EA030021FA04F35F
:1004600045EA030130BDC4F10C04C4F1200220FAB6
:1004700002F001FA04F340EA0300294630BD21FAF4
:1004800004F0294630BD94F0000F83F4801306BFBA
:1004900081F480110134013D4EE77FEA645C18BFAE
:1004A0007FEA655C29D094EA050F08BF90EA020F45
:1004B00005D054EA000C04BF1946104630BD91EA3D
:1004C000030F1EBF0021002030BD5FEA545C05D140
:1004D0004000494128BF41F0004130BD14F580047F
:1004E0003CBF01F5801130BD01F0004545F0FE41F3
:1004F00041F470014FF0000030BD7FEA645C1ABF28
:10050000194610467FEA655C1CBF0B46024650EA5E
:10051000013406BF52EA033591EA030F41F400218A
:1005200030BD00BF90F0000F04BF0021704730B510
:100530004FF4806404F132044FF000054FF00001E5
:1005400050E700BF90F0000F04BF0021704730B5A6
:100550004FF4806404F1320410F0004548BF40427B
:100560004FF000013EE700BF42004FEAE2014FEAD0
:1005700031014FEA02701FBF12F07F4393F07F4FAB
:1005800081F06051704732F07F4208BF704793F0AE
:100590007F4F04BF41F40021704730B54FF46074C1
:1005A00001F0004521F000411CE700BF50EA0102C4
:1005B00008BF704730B54FF000050AE050EA01026D
:1005C00008BF704730B511F0004502D5404261EBDD
:1005D00041014FF4806404F132045FEA915C3FF41E
:1005E000D8AE4FF003025FEADC0C18BF03325FEABB
:1005F000DC0C18BF033202EBDC02C2F1200300FA6C
:1006000003FC20FA02F001FA03FE40EA0E0021FA90
:1006100002F11444BDE600BF4FEA410212F5001298
:1006200015D211D56FF47873B3EB625212D94FEA39
:10063000C12343F0004343EA505311F0004F23FA23
:1006400002F018BF404270474FF00000704750EA78
:10065000013005D111F0004008BF6FF00040704735
:100660004FF00000704700BF7BB972B90029BEBFD0
:1006700000204FF0004106E008BF00281CBF6FF0CB
:1006800000414FF0FF3000F0D3B9ADF1080C6DE937
:1006900004CE002909DB002B1ADB00F04DF8DDF851
:1006A00004E0DDE9022304B07047404261EB410100
:1006B000002B1BDB00F040F8DDF804E0DDE902234D
:1006C00004B0404261EB4101524263EB4303704787
:1006D000524263EB430300F02FF8DDF804E0DDE95C
:1006E000022304B0404261EB41017047524263EB88
:1006F000430300F021F8DDF804E0DDE9022304B053
:10070000524263EB4303704753B94AB9002908BF0B
:1007100000281CBF4FF0FF314FF0FF3000F088B9C8
:10072000ADF1080C6DE904CE00F006F8DDF804E048
:10073000DDE9022304B070472DE9F047089D8E469D
:1007400004468846002B4AD18A42174662D9B2FA3B
:1007500082F64EB1C6F1200301FA06F820FA03F33F
:10076000B74043EA0808B4404FEA174E1FFA87FC27
:10077000B8FBFEF1230C0EFB118843EA084301FB92
:100780000CF29A4209D9FB1801F1FF3080F0EA809F
:100790009A4240F2E78002393B449A1AA3B2B2FB74
:1007A000FEF00EFB102243EA024300FB0CFC9C45CA
:1007B00009D9FB1800F1FF3280F0D6809C4540F249
:1007C000D3803B44023840EA0140A3EB0C030021F4
:1007D0001DB1F3400022C5E90032BDE8F0878B422D
:1007E00005D90DB1C5E9000100210846F5E7B3FAC6
:1007F00083F1002946D1734502D3824200F205817C
:10080000841A6EEB030201209046002DE5D0C5E965
:100810000048E2E7002A00F09080B2FA82F6002E4B
:1008200040F0A4808A1A030C4FEA174E80B2BCB283
:100830000121B2FBFEFC0EFB1C2243EA024304FB37
:100840000CF29A4207D9FB180CF1FF3802D29A42F7
:1008500000F2E080C4469B1AB3FBFEF20EFB12339B
:1008600040EA034302FB04F49C4207D9FB1802F15F
:10087000FF3002D29C4200F2CA8002461B1B42EAB1
:100880000C40A5E7C1F120068B4022FA06F71F4372
:100890000EFA01F420FA06F32EFA06FE4FEA174983
:1008A000234300FA01F81FFA87FCBEFBF9F01C0C89
:1008B00009FB10EE44EA0E4400FB0CFEA64502FACA
:1008C00001F209D93C1900F1FF3A80F09C80A6455D
:1008D00040F2998002383C44A4EB0E041FFA83FED8
:1008E000B4FBF9F309FB13444EEA044403FB0CFC8C
:1008F000A44508D93C1903F1FF3E80F08280A4454D
:100900007FD9023B3C4443EA0040A4EB0C04A0FB2B
:1009100002EC64457346E14662D35FD05DB1B8EB4B
:10092000030264EB090404FA06F622FA01F31E43FB
:10093000CC40C5E9006400214FE7B1FBF2FC010C9B
:1009400041EA0E4180B240EA01423B4638463C460D
:10095000B846BE462026B1FBF7F1A2EB080241EAF9
:100960000C4166E7014618E710462CE7C6F1200265
:100970002EFA02F3B740B14020FA02F24FEA174EC6
:100980000A43B3FBFEF8BCB20EFB1833110C41EA6C
:10099000034108FB04F9B04089454FEA104380B297
:1009A0003ED9791808F1FF3C01D289451FD8A1EB47
:1009B0000901B1FBFEF909FB04F80EFB191192B213
:1009C00042EA0142424529D2BA1809F1FF31C4D2A4
:1009D0004245C2D2A9F102013A44BEE7F0459DD298
:1009E000BEEB02036CEB070C0138E14696E7A7EB80
:1009F00009094944A8F1020CB1FBFEF909FB04F80E
:100A0000DBE773467FE7504666E70846FDE63B4472
:100A1000023A33E7ACF1020C3B441CE749469CE741
:100A2000A1EB0901C446B1FBFEF909FB04F8C4E7D8
:100A3000704700BFDFF834D0002103E00C4B5B5857
:100A4000435004310B480C4B42189A42F6D30B4AE0
:100A500002E0002342F8043B094B9A42F9D303F029
:100A6000F7FA22F0D1FF01F0C9FA70470000032025
:100A70005467020800000020740200208004002057
:100A8000804D0120FEE7704708B500F0BBFDBDE8D2
:100A9000084000F03FBD00F0B7BD704710B504211D
:100AA000044621F0EAFC204610BD000038B50C4B8E
:100AB0000C4C18800C4B822019806368984740F6D4
:100AC000110398420AD1094D23682C60822098476F
:100AD0002B688220DB689847002038BD0120FCE7A6
:100AE000A60400209C000020A4040020A8040020EC
:100AF0004FF4A071F020FFF7D9BF0000F7B5394DD2
:100B00002B6804461B6982209847208000284ED01D
:100B10002B680DF106025B6901A982209847324BD0
:100B20001B78002B4BD0BDF8062040F674639A4228
:100B30003FD9ADF80630BDF806209B1A9BB20A2BB0
:100B400042D90B22B3FBF2F3284A1288934201D90F
:100B5000013A93B2BDF80420254840F6B8318A42E4
:100B600034D8C2F571620E32016892B20F25B2FB21
:100B7000F5F2204D2D88AA4284BF05F1FF35AAB2B7
:100B80008A4215468EB22AD9921B91B21A4E376804
:100B9000BB42BAB28CBF9A1AD21A92B2114405293A
:100BA000C4BF05603360036863803368A38003B00B
:100BB000F0BDB32A9CBFB422ADF80620BBE7BDF858
:100BC0000630A3F5B473B9E70023C3E7C2F56D623D
:100BD000083292B20E2A0168C8D800252A46891A1E
:100BE00089B2D3E7A8040020082F0020A404002025
:100BF000A0040020A60400209C04002037B568460D
:100C00000D461446FFF77AFFBDF8000030B1BDF87D
:100C100002302B60BDF804302360012003B030BDEA
:100C2000032821D8DFE800F0020B12190F4B1A68D5
:100C3000B2FA82F2520904210D4803F09DBC0B4B1D
:100C40005A68B2FA82F252090821F5E7074B9A680E
:100C5000B2FA82F252091021EEE7044BDA68B2FAD6
:100C600082F252092021E7E7704700BFAC04002060
:100C700000100240032821D8DFE800F0020B12190F
:100C80000F4B1A68003A18BF012204210D4803F0E7
:100C900073BC0B4B5A68003A18BF01220821F5E7D4
:100CA000074B9A68003A18BF01221021EEE7044B67
:100CB000DA68003A18BF01222021E7E7704700BF39
:100CC000AC0400200010024003280DD8DFE800F03B
:100CD0000206080A0421054803F053BC0821FAE77C
:100CE0001021F8E72021F6E7704700BF001002400E
:100CF00008B5032811D8DFE800F0020A0C0E042121
:100D0000074803F033FC431E5842584108BD0821F0
:100D1000F6E71021F4E72021F2E70020F3E700BF17
:100D20000010024070B5084D00240126E0B2FFF724
:100D3000DFFF18B12B68012B18BF2E600134052C82
:100D400005F10405F2D170BDAC040020012380F848
:100D5000781080F8793070477047002070470000A5
:100D6000034B4164003918BF01211970704700BF5F
:100D70003D400120704700207047836B0BB108464F
:100D8000184770474FF6FF707047406803689B69CB
:100D900018477047704770477047704710B5044652
:100DA00000F048FD23680349D3F890302046BDE8A1
:100DB00010401847000000D008B503680446D3F877
:100DC0008430984723682046DB6F984700F0ECF8A2
:100DD000236820465B6F9847292001F0D1FB00F083
:100DE000E3F8236820465B6F9847F8E710B50446A0
:100DF0000AF096FE23682046D3F8BC30BDE81040C8
:100E0000184700F0FBBC00F0FFBC00F031BD00F063
:100E1000D1BC00F041BD00F049BD00F0D5BC0AF0E6
:100E20009FB810B58421044621F027FB204610BD51
:100E300010B590F8341090F878400C4B8C421A782A
:100E400009D03AB90A4A0B491488088810800C80E6
:100E500001221A7010BD002AFCD0054A05491488E9
:100E6000088810800C800022F3E700BF3640012084
:100E7000324001203440012070B50D46194635B985
:100E8000094B0A4A0A4840F2FF2122F079FAC0E9E8
:100E90000F52084B003A18BF01221A700368BDE8D0
:100EA0007040D3F890301847A4480208DC48020884
:100EB0002A4902083C40012008B5094B1B888B4297
:100EC00003D8084B1B88934205D9074B074A0848AB
:100ED000A32122F055FA074B1980074B1A8008BD51
:100EE00032400120344001206F490208D2490208F3
:100EF0002A490208384001203A400120034690F870
:100F00007A0018B1586803681B68184770470000DA
:100F1000012108B50022084606F0F4FE0A4B1860CD
:100F200028B90A4B0A4A28210A4822F029FA002245
:100F30000421012006F098FF074B186018B9074BF1
:100F4000034A2C21F0E708BDC0040020154A02081E
:100F50005E4A02088D4A0208BC040020E74A0208E3
:100F6000024B4FF0FF31186806F016BFC004002096
:100F7000014B186806F03CBFC0040020024B002162
:100F8000186806F009BF00BFC0040020FFF7F0BFDB
:100F900003480449006800231A4606F0A0BF00BFBA
:100FA000BC0400200400002013B5084C00231A469E
:100FB00001A9206806F0C4FF20684FF0FF3300222B
:100FC00001A906F0BDFF02B010BD00BFBC040020A7
:100FD00003685B6C18470120704703689B6A1847D9
:100FE000FEE740F2EF307047054B0360054B4FF0D2
:100FF0008062C3F88820BFF34F8FBFF36F8F7047B5
:10100000A454020800E100E010B504464FF45A6110
:10101000FFF7EAFF204621F030FA204610BD00001D
:1010200082B0002301930E4B1A6B42F400021A6344
:101030001A6B02F400020192019A1A6942F400024A
:101040001A611A6922F400021A61064B064A1A61F3
:10105000064A5A61064B4FF080629A6002B07047B0
:1010600000380240F0300020C1120008E10F0008F3
:1010700000E100E008B50A2809D8DFE800F0061012
:101080000E080808081010101000022008BD054BBB
:10109000054A0648902122F073F90020F6E7012066
:1010A000F4E700BF294B0208444B02088F4B0208AB
:1010B00038B50C46887FFFF7DDFFA58AE28A164B1C
:1010C0002169586342EA05425A64628BD963521B14
:1010D0001A642568082D0ED19A611A615862207F22
:1010E0000E4A42EA0062DA61E2681A620C4A596109
:1010F000D9601A6038BD0022D8611A61E1680A0A15
:10110000480902F4784200F4FC600243C1F3C401D0
:101110000A439A63034AECE700B002400900010069
:10112000012302000123030008B50B280BD8DFE8D8
:1011300000F00612100A0A0A0A0808080808022025
:1011400008BD0520FCE7054B054A06486F2122F043
:1011500017F90020F4E70120F2E700BF294B02084D
:10116000E74B02088F4B02082DE9F04191F81D80F2
:101170000C464046FFF7D8FFA77F05463846FFF7E5
:10118000D3FF06463846FFF775FFA18A628B444BB2
:10119000521A1A649A61228B521A1A61E28A5863AF
:1011A00042EA01425A6421696268D963DA602068C0
:1011B000802828D0227F0FD8202867D0402865D0EB
:1011C00004281AD0364B45EA026545F40035B84587
:1011D000DD6161D0334A44E0B0F5807F04D0B0F5E2
:1011E000007FEFD1304800E0304840EA0262DA6127
:1011F000E2681A625E62596132E045EA026242F4D4
:101200000032DA61F6E7A068021DDA62227F45EA61
:10121000026545F40035DD615E625961017841B1D6
:10122000012921D0224B234A23484FF48D7122F00B
:10123000A7F8DA69418822F47F42013922F01002CE
:1012400042EA0122DA610121154BDA6942F02002FB
:10125000DA61DA699206FCD410229A600029B9D0CA
:10126000164A1A60BDE8F081B2F1FF01DA694088E0
:1012700022F47F4200F1FF3022F0100242EA002205
:1012800042F0100218BF0121DA61DDE745EA02628F
:10129000034B42F40032B4E742F20132E1E700BF0F
:1012A00000B0024001230100090002000A00020010
:1012B000314C02084B4C02088F4B020801230200FC
:1012C000024B1B68586803685B691847404001205F
:1012D00070B5044625460A4B0C3000266060267225
:1012E000667245F8203B602229460AF06FFD04F53E
:1012F0005A63EE6024359D42FBD1204670BD00BF8D
:10130000A4540208034B1A68D207FCD423229A6023
:10131000704700BF00B002407047000030B50F4C6E
:101320002568ED07FCD423250904A56041F00101DF
:101330000225FF2B65636164E0630AD0084965629A
:1013400041EA0363E361074B22626061E06023606E
:1013500030BDE561039BA363034BF8E700B0024097
:1013600009000100010002000100030030B50E4C2D
:101370002568ED07FCD423251204A56042F0010284
:101380000225FF2B65636264E063E16008D01B0601
:1013900043F00213E361054B65626061236030BD79
:1013A000034BE3610123F9E700B0024001000200B2
:1013B000020002FF30B50B4C2568ED07FCD4232555
:1013C00012041B06A56043F40033022542F001021B
:1013D00065636264E063E160E361034B65626061E1
:1013E000236030BD00B002400100020001207047C0
:1013F0000C2070470C2303FB0100083070470C23BE
:1014000003FB010008307047012070474FF4726001
:1014100070474FF4726303FB0100083070474FF4CC
:10142000726303FB010008307047012070471020F1
:10143000704700EB01100830704700EB01100830D6
:101440007047084601F0BCBD10B5034B036004466D
:1014500009F0DAFA204610BD5C55020810B50446C2
:10146000FFF7F2FF2046142121F007F8204610BDB7
:1014700010B5034B0360044609F0C6FA204610BDC0
:101480002855020810B50446FFF7F2FF204640F643
:10149000287120F0F2FF204610BD000010B5034B6C
:1014A0000360044609F0B0FA204610BDF454020867
:1014B00010B50446FFF7F2FF2046182120F0DDFFAB
:1014C000204610BD10B5084B0360044600F654706A
:1014D000FFF7BAFF04F12C00FFF7CAFF04F1140074
:1014E000FFF7DCFF204610BD9055020808B5024802
:1014F000FFF7E8FF08BD00BF9C13002010B50446AD
:10150000FFF7E0FF204641F2C80120F0B6FF204679
:1015100010BD00002DE9F34101F0D4FB054601F0B8
:10152000D5FB00240146234628462246009411F0AC
:1015300011FF274B274A1A60204601F00FFF264D66
:10154000264B274A27489A6011F06CFE2B68BFF3A0
:101550005B8FDB0735D4284620F091FF88B3224CFF
:10156000224B236004F66C7604F1140004F12C087D
:1015700004F654776060C4F80880E760266109F0DB
:1015800045FA1B4B6361404609F040FA194BE36290
:10159000384609F03BFA184BC4F8543F04F668701B
:1015A00001F052FF224604F66871304601F042FF16
:1015B000304601F005FD114821F000FF284620F0DB
:1015C0006AFF0F4802B0BDE8F041FFF7E7BB00BF7C
:1015D000A440012048050020981300206805002041
:1015E0004C050020080000209C13002090550208A4
:1015F000F4540208285502085C550208ED1400084E
:10160000C4040020704700000148FFF7D5BB00BFAD
:10161000C404002070B5264E264C274D274B23606E
:101620003046FFF755FE284616F09AFF24480FF083
:10163000F7FE244B2448DC6000224FF48071C3E99C
:10164000121222491A86C3E91A12214983F8582036
:10165000C3E91E011F49C3F880101F491F480B60D2
:10166000F021C3E90422C3E90622C3E90822C3E941
:101670000A22C3E90E22C3E91022C3E91422C3E9F6
:1016800017225A6683F870205A67C3E90165018002
:101690001348018013484FF4A07101801248018063
:1016A00012490A70012283F83420114A1A6070BD71
:1016B000F4050020941300206805002094480208D7
:1016C0004C050020C40400200000010101000001BD
:1016D000000450001A001400404001203240012054
:1016E00038400120344001203A400120364001209A
:1016F000B85302080148FFF777BC00BFF40500208B
:101700000020704781807047C18070470181704719
:10171000418170477047704770477047704710B4F9
:10172000C4880368121B84885B6D091B12B25DF8C4
:10173000044B09B218474FF6FF7383814FF0FF3314
:1017400003621368C36110607047002070478B8884
:10175000838001207047704780F82610704790F80A
:101760002600704710B50022B1F90840B1F90A10FF
:10177000028042808480C18010BD002202804280AD
:101780008280C28070470177704780ED080A7047F9
:1017900080F82410704780F82510704701207047AA
:1017A000983070478C30704784307047704770476E
:1017B00070470000034B902283F85A2383F8582384
:1017C000704700BF00E100E0094A0A49D3680A48AF
:1017D000C3F30A03013B9BB20B801169C1F30A01F9
:1017E000013901801364536B43F001035363704765
:1017F000006801406624002064240020014BD3F8D7
:10180000AC00704700680140024B0122C3F8AC10E5
:101810005A6270470068014010B52C21044620F040
:101820002CFE204610BD10B5BC21044620F025FE3C
:10183000204610BD70B5044609F0E7FB23689D6E95
:101840000EF086FB01462046A8472368054AD3F8D8
:101850008C502046AC460023BDE87040A2F51631FE
:10186000604700BF00B004D009F0B6BB09F0C0BBB0
:1018700009F07CBB09F0EBBC90F8252012B103689D
:101880005B691847704790F825201AB190F824201A
:1018900002B1186070470000034B4FF080629A60FD
:1018A0004FF080729A60704700E100E0084B4FF003
:1018B0008062C3F88820BFF34F8FBFF36F8F4FF064
:1018C0008072C3F88820BFF34F8FBFF36F8F7047CC
:1018D00000E100E070B50023124E8380124B0360DC
:1018E000336893F8582005460AB1D86C00B9986857
:1018F0000368DB6A98473368B0FA80F4D86C6409EF
:1019000030B10368DB6A9847002808BF44F001043F
:101910002CB9064B064A07482C2121F031FD2846F8
:1019200070BD00BF40400120A4550208894C020848
:10193000E74C0208204D020870B5254E3568BFF30C
:101940005B8F15F0010540D1304620F098FD00284E
:101950003BD0204C204B256104F13400C4E9003514
:10196000C4E90255E584A562A58510F03EF804F1AE
:1019700058000CF0B5FB194BA3652046184B40F8F6
:10198000843BFFF7A7FF174BC4F884302433C4F817
:101990008C304FF4C803C4E928350023C4F8AC30B8
:1019A000C4F8B030C4F8B430C4F8B8300E480F4BA7
:1019B000C4F89050C4F89C50C4F8A850C4F89830AB
:1019C00021F0FCFC304620F066FD024870BD00BFEF
:1019D000682400206C240020A85A0208C45502087C
:1019E0003C5602085C5A0208B11700083C5A02082B
:1019F00038B5184C23685BB3174B184A1B6C118819
:101A00008B4216D1164B198803F0A0FB236893F87C
:101A10006A200025013283F86A2083F87C50FFF7A2
:101A2000B7FA20680AF07CF82846BDE83840FFF78E
:101A3000F7B803F08BFB2468236820461B6A98479D
:101A4000012384F87C300020BDE83840FFF712B94C
:101A500038BD00BF404001200068014066240020DE
:101A60006424002008B50C490C48012208F05CFAF7
:101A700008B100F0DFFD0A49084808F068FA08B12B
:101A800000F0D8FD054808F07BFA18B1BDE8084021
:101A900000F0D0BD08BD00BF400000202825002078
:101AA0005C010020122301480B8070472C000020AD
:101AB000042301480B80704728000020002370B5E4
:101AC0004D1C1E46040FB0F1204F34BF3034373464
:101AD00001F8134005F813600133DCB2A2424FEA6B
:101AE0000010EFD870BD00001A2310B50B800A4B10
:101AF000D3F8100AD3F8182A80180AD0D3F8144A59
:101B000006490822FFF7DAFF042210312046FFF7CA
:101B1000D5FF034810BD00BF0070FF1F0E0000205E
:101B20000C00002010B5044C04480A46214608F079
:101B3000F6FD204610BD00BF04280020824D02089B
:101B400010B5044C04480A46214608F0E8FD20463A
:101B500010BD00BF04280020954D020810B5044CAC
:101B600004480A46214608F0DAFD204610BD00BFB1
:101B700004280020AB4D020810B5044C04480A4666
:101B8000214608F0CCFD204610BD00BF04280020EF
:101B9000B64D020830B5044689B01422002103A8CE
:101BA00021F02BFE22681C4B9A4233D11B4C1C485F
:101BB00000250195236B43F002032363236B03F09D
:101BC00002030193019B03A94FF40053039302F016
:101BD000E9FB4FF440420223CDE9032303210C2308
:101BE000CDE906130E4805950DEB030102F0DAFB73
:101BF0000295236B43F000532363236B03F00053E0
:101C000002934D202A460521029B02F081FA4D20C5
:101C100002F0B0FA09B030BD0000044000380240C4
:101C20000004024000F29C41D0F8E00408F0BAB988
:101C3000242303FB0103D0F8E004D3F8602208F06A
:101C4000E1B9242303FB0103D0F8E0041A6A08F089
:101C500013BAD0F8E00408F0AFBA10B5C179044661
:101C600021B1022901D000F0E5FC0121D4F8E00403
:101C700008F086FAD4F8E004BDE8104008F050BA45
:101C800010B50446D0F8E00408F07DFA2268D2F8D6
:101C9000003E43F00103C2F8003EE37A23B1034A59
:101CA000136943F00603136110BD00BF00ED00E0AF
:101CB000D0F8E00408F075BAD0F8E00408F09CBA57
:101CC000D0F8E00408F085BAD0F8E00408F0A7BA2C
:101CD000D0F8E00408F0A5BA08B50278012A034656
:101CE00027D11548C0F8E034C3F8C802134B03608D
:101CF000062303714FF40073C38002234372002351
:101D000043810373C281037403F03EFA08B100F00B
:101D100091FC4FF40071084803F05BFF8022002122
:101D2000054803F037FF04484FF4BA72012103F06D
:101D300031FF002008BD00BF182A00200000044029
:101D400011F0800FD0F8C8324FF024021BBF01F011
:101D50007F0102FB013302FB0133987D08BF93F83A
:101D60005602704700487047042A0020704718B197
:101D700002280CBF01200320704708B5D0F8C80224
:101D800003F071FABDE80840FFF7F1BF10B5144643
:101D9000D0F8C8021A46234603F097FABDE810406F
:101DA000FFF7E5BF08B5D0F8C80203F0C7FABDE8F1
:101DB0000840FFF7DCBF08B5D0F8C80203F025FBE8
:101DC000BDE80840FFF7D3BF08B5D0F8C80203F05C
:101DD00053FBBDE80840FFF7CABF08B5D0F8C802FA
:101DE00003F060FABDE80840FFF7C1BF08B5D0F8BE
:101DF000C80203F0EFFABDE80840FFF7B8BF08B526
:101E0000D0F8C80203F0C8FABDE80840FFF7AFBF3A
:101E100007B5064BADF806001B68054801220DF119
:101E2000060104F039FC03B05DF804FB5C000020FF
:101E30009C2F00202DE9F0472DED028BDFF80C815F
:101E4000404C414F82B0D8F800004FF0FF330022E1
:101E500001A906F075F80028F5D19DF80650002D6F
:101E600055D19DF90430DFF8E8A0DFF8E890DAED0D
:101E7000008A99ED008A5B4207EE903AF8EEE77A25
:101E80009DF90530B1EE007AE7EE878A07EE903AC9
:101E9000F8EEE77A18EE900AA7EE878AFEF764FB61
:101EA00041EC100B20F0C0FB51EC100BFEF7B4FB23
:101EB00046B218EE100AFEF757FB41EC100B20F06B
:101EC000B3FB51EC100BFEF7A7FB07EE906AF8EEA0
:101ED000E77A40B278EEE78A07EE900AF8EEE77A02
:101EE00056EA000338EE678ACAED008A89ED008A57
:101EF000A9D060701349257004223846A670E57099
:101F000008F012FD25706570A570E5709BE7012D46
:101F10000CD16070A070E0700A4925700422384628
:101F200008F002FD322005F0E1FE8CE7022D8AD197
:101F300020706070A070E07002490422384608F0FA
:101F4000F3FC80E73831002028250020102F0020E6
:101F5000002F0020FC2E002008B5642005F0C6FEEE
:101F6000FBE7000030B595B0102200210AA821F04F
:101F700044FC1422002103A821F03FFC00241D4B47
:101F800001941A6C42F080521A641B6C03F0805367
:101F90000193019B184B02941A6842F440421A6064
:101FA0001B6803F4404302930122029B4FF48033E9
:101FB000CDE9082302254FF48003CDE90E53042117
:101FC000A823CDE9101308A807231393129503F053
:101FD00005FE0F23CDE903354FF4A0504FF4805395
:101FE000CDE90603052103A8059403F0D3FF15B03E
:101FF00030BD00BF00380240007000402DE980482D
:102000009BB002F033F8FFF7ADFF142200210DA8BA
:1020100021F0F3FB0024C74B00941A6BC648C74D50
:1020200042F010021A631A6B02F010020092009A3A
:1020300001941A6B42F020021A631A6B02F020021C
:102040000192019A02941A6B42F080021A631A6B91
:1020500002F080020292029A03941A6B42F0040288
:102060001A631A6B02F004020392039A04941A6B27
:1020700042F001021A631A6B02F001020492049A00
:1020800005941A6B42F002021A631A6B02F0020204
:102090000592059A06941A6B42F040021A631A6B75
:1020A00002F040020692069A07941A6B42F0080268
:1020B0001A631B6B03F00803224607933C21079B1E
:1020C00002F05AFA9E480122022102F055FA2246F5
:1020D0009B48042102F050FA22469A484FF440519E
:1020E00002F04AFA01263C23CDE90D3692480F94BE
:1020F00003230DA90227109302F054F990480DA96B
:10210000CDE90D76CDE90F4402F04CF904238C485B
:102110000DA9CDE90D36CDE90F4702F043F90DA920
:102120004FF440538748CDE90D36CDE90F4702F013
:1021300039F98548854B036002F02AF8DFF834C28C
:10214000834B2C62C5E900C328464FF48043C5E9A0
:102150000434C5E90244C5E9064402F01BFC102121
:10216000284602F05FFE2146284602F07AFE794DAD
:10217000DFF804E2AC624FF48273C5E900E34FF488
:1021800000781823C5E9068328460A23C5E90244D6
:10219000C5E90444C5E90844EB6204F021FA8F2341
:1021A0002246394666488DF824308DF8344002F0D6
:1021B000E3F932464FF47A7309A9284604F06CFA21
:1021C0004FF47A7332460DA9284604F011FC3246CA
:1021D00039465B48604D02F0CFF99DF83430D32B7F
:1021E00004BF5E4B1E705E4B0127C5E900374FF000
:1021F000100940230024C5E904934FF4C073C5E9D6
:1022000006344FF40063C5E908344FF40053022646
:102210004FF0040B4FF00308AB620DA907232846CB
:10222000CDE90D63CDE90FB34FF0080AC5E9024BC4
:10223000CDE91186139604F0B7F84FF6FF7209A99D
:102240002846CDE90AA7089409970C9404F0CCF825
:10225000384601F037FF4FF6FF7209A92846CDE94D
:10226000096ACDE90B7404F0BFF84FF6FF7209A9B3
:102270002846CDE9098ACDE90BB404F0B5F84FF44E
:102280000C730893089B0C934FF6FF7209A928461C
:10229000CDE909BA0B9704F0A7F840F26A51284635
:1022A00004F0C0F8342221460DEB020021F0A5FA1B
:1022B0002C4D2D4B2C61C5E900340923C5E90537A8
:1022C0001D23C5E9073840F20D1240F24313C5E95A
:1022D000092340F2171140F247132846C5E90B13B2
:1022E000C5E90244AC8685F8364002F04DFEFF2178
:1022F000F022CDE912144FF4806005214FF4A07351
:10230000CDE91401CDE90E240DA9CDE916422846E8
:102310002246164D1893CDE910360D94ADF8644061
:102320008DF8664002F0E4FE114B2B601B68984765
:102330002B6823E000380240001002409C3000204F
:1023400000080240000C0240303100200030024002
:10235000A08601009C2F0020202F0020082F0020A5
:10236000400100A0F42F002000680140042F00204D
:1023700064000020005C004000500140274DDB68F5
:102380009847274B2846C5E90034C5E90264C5E9EA
:102390000A46C5E90C4401F00BFF3946284601F016
:1023A000BDFF204D20484FF4E133C0E900530C231A
:1023B000C0E90534C0E902440461C46104F0CEFD03
:1023C000FEF762FBFFF74EFBFEF75DFB05F006FC38
:1023D000164A3146484605F047FD154B154A186028
:1023E0004146202005F040FD134B144A1860214659
:1023F000134805F01FFC134B134A1860214613487D
:1024000005F018FC124B134A18602146124805F0DB
:1024100011FC124B186005F0F3FBFEE7F0300020D2
:1024200000B0024000100140542F0020BC560208AA
:10243000142F0020A4560208102F0020F85602087E
:10244000591F00081C2F0020D4560208970A0008C4
:10245000182F002080560208351E00080C2F00207F
:1024600007B503460948006868B18DF804300023B9
:102470008DF805108DF8062001A91A4605F02FFDEC
:10248000B0FA80F0400903B05DF804FB102F002083
:10249000704770477FB5094B8DF817201B68029372
:1024A0000DF117020123009201930A4601460448E8
:1024B00002F018FB07B05DF804FB00BF60000020CD
:1024C0009C3000207FB500238DF81730084B1B6827
:1024D00002930A4601230DF1170100910193014671
:1024E000044802F08FFB9DF8170007B05DF804FB6D
:1024F000600000209C3000201FB5084C246800922A
:10250000CDE901340A4601230146054802F07AFB71
:10251000003818BF012004B010BD00BF60000020CB
:102520009C30002001F0CEBD10B5064C00222046A4
:10253000042102F021F820460122BDE810400421C8
:1025400002F01AB80008024038B50B4D04460122CB
:102550000A484FF4005102F00FF8002204212846E7
:1025600002F00AF82046FFF753FC28460122BDE896
:102570003840042102F000B800080240000C02407C
:1025800038B50B4D044600220A484FF4005101F0C3
:10259000F3FF00220421284601F0EEFF2046FFF75A
:1025A00037FC28460122BDE83840042101F0E4BF91
:1025B00000080240000C0240F7B5144E144F0546C7
:1025C0000C4630460022042101F0D6FF00224FF4D1
:1025D0000051384601F0D0FF2846FFF719FC0D4B9B
:1025E0000D481B68224601A904F002FA3846012270
:1025F0004FF40051019C01F0BFFF3046012204213D
:1026000001F0BAFF204603B0F0BD00BF0008024051
:10261000000C02405C0000209C2F002001F052BD05
:102620000268034B9A4201D101F03ABD704700BFE6
:10263000001000407047000082B00E4B0022009254
:10264000596C41F480415964596C01F48041009106
:1026500000990192196C41F0805119641B6C03F0D0
:1026600080530193019B0F216FF0010002B001F034
:102670004FBD00BF003802400268094B9A4282B049
:102680000BD100230193074B1A6B42F480521A635B
:102690001B6B03F480530193019B02B0704700BF92
:1026A000003002400038024007B50F4B02689A42E2
:1026B00016D10022A3F5F0430192196B41F40001F9
:1026C00019631B6B03F40003019305215A20019B3E
:1026D00001F01EFD5A2003B05DF804EB01F04ABD85
:1026E00003B05DF804FB00BF00B002402DE9F043E9
:1026F000044689B01422002103A821F07EF8226844
:10270000244B9A4243D1244C244800250095236B46
:1027100043F004032363236B03F004030093009B43
:102720000195236B43F001032363236B03F0010343
:102730000193019B4FF012094FF400734FF0010811
:102740000327042603A9CDE90339CDE905870796B8
:1027500001F028FE4FF480731148079603A9CDE9D4
:102760000339CDE9058701F01DFE0295236C43F482
:1027700000032364236C03F400030293029B236A87
:1027800043F400032362236A23F40003236209B0A5
:10279000BDE8F083005C00400038024000080240C1
:1027A00000000240F0B599B004461422002107A8A9
:1027B00021F023F830220DEB0200002121F01DF85A
:1027C00022685E4B9A4240F0B78008230C93C023E6
:1027D0001093042312930CA84FF40033159303F0C5
:1027E000B7FC08B1FFF726FF554B5648002400946C
:1027F0005A6C42F080625A645A6C02F08062009215
:10280000009A01941A6B42F020021A631A6B02F0CC
:1028100020020192019A02941A6B42F001021A639B
:102820001A6B02F001020292029A03941A6B42F0B0
:1028300002021A631A6B02F002020392039A0494D2
:102840001A6B42F040021A631A6B02F040020492C3
:10285000049A05941A6B42F004021A631A6B02F090
:1028600004020592059A06941A6B42F008021A6354
:102870001B6B03F00803069302250E26069B0B969E
:102880004FF4806307A9CDE90735CDE9094501F08B
:1028900089FD41F658032C480B9607A9CDE9073569
:1028A0000927CDE9094501F07DFD032327480B9752
:1028B00007A9CDE90735CDE9094501F073FD4FF4CE
:1028C000706322480B9607A9CDE90735CDE9094584
:1028D00001F068FD4FF40C631D480B9607A9CDE984
:1028E0000735CDE9094501F05DFDC02319480B9678
:1028F00007A9CDE90735CDE9094501F053FD0823C6
:1029000015480B9607A9CDE90735CDE9094501F032
:1029100049FD4FF4A0530E480B9707A9CDE90735A1
:10292000CDE9094501F03EFD58202246052101F080
:10293000EFFB582001F01EFC19B0F0BD006801400B
:10294000003802400014024000000240000402402F
:102950000018024000080240000C024010B5044676
:1029600088B01422002103A820F047FF2268144BEE
:102970009A4223D103F56843002101915A6C114812
:1029800042F480125A645A6C02F480120192019A45
:1029900002911A6B42F020021A631B6B03F02003B2
:1029A0000293029B4FF4607202230321CDE90323BB
:1029B0000523CDE9061303A901F0F4FC08B010BD0E
:1029C000005001400014024010B5044688B01422A3
:1029D000002103A820F011FF2268144B9A4223D152
:1029E00003F59433002101915A6C114842F0100212
:1029F0005A645A6C02F010020192019A02911A6B09
:102A000042F001021A631B6B03F001030293029B65
:102A10004FF4C06202230321CDE903230723CDE94C
:102A2000061303A901F0BEFC08B010BD0010014060
:102A3000000002402DE9F04186B0002303932B4BA8
:102A40001C68002C4FD14FF00108C3F80080284BC0
:102A500000949A6B274842EA08029A639B6B03EA48
:102A600008030093022703260C25009B01A94FF6BB
:102A70003F03CDE90137CDE9046501F093FC1E4821
:102A8000059501A9CDE90187CDE9034601F08AFC4E
:102A900048F233131948059501A9CDE90137CDE96D
:102AA000034601F07FFC4FF683731548059501A995
:102AB000CDE90137CDE9034601F074FC4CF2037314
:102AC0001048059501A9CDE90137CDE9034601F08C
:102AD00069FC60230C48059501A9CDE90137CDE9D2
:102AE000034601F05FFC06B0BDE8F0813C310020F8
:102AF0000038024000140240000802400018024062
:102B000000100240000C02400004024070B588B082
:102B100000230293204B1A6C42F010021A641B6CC3
:102B200003F010030293054601A903A8029B03F0DA
:102B3000F1FA069B4BBB03F0CDFA184E184B3360ED
:102B400040F2E733F360174BB0FBF3F3013B7360E4
:102B5000304600233361B360B36104F013F90446D7
:102B600080B9304603F0E8FF044658B9362001F03A
:102B700001FB0F2D0DD822462946362001F0C8FA58
:102B8000094B1D60204608B070BD03F0A3FA400059
:102B9000D3E70124F6E700BF0038024040310020AF
:102BA0000010004040420F00CC0000207047FEE7BC
:102BB000FEE7FEE7FEE77047014803F0FBBF00BFFA
:102BC00040310020014802F09DBC00BF182A0020BF
:102BD000014802F030BA00BFF42F0020014801F094
:102BE00013BB00BFF03000200120704708B520F073
:102BF00005FF162303604FF0FF3008BD08B520F035
:102C0000FDFE16230360FEE770B50D4614460E4622
:102C1000731B9C4201DC204670BDAFF3008006F8B8
:102C2000010BF5E770B50D4614460E46731B9C422A
:102C300001DC204670BD16F8010BAFF30080F5E70C
:102C40004FF0FF3070474FF400534B600020704747
:102C500001207047002070470A4A116808B50346F2
:102C600009B9094911601068694603448B4206D9C5
:102C700020F0C4FE0C2303604FF0FF3008BD13604A
:102C8000FCE700BF88310020804D0120704710B55F
:102C9000042104461FF0F1FB204610BD012908B5B0
:102CA00006D0022908D059B900F096FB006808BD8B
:102CB00000F092FB4068FAE700F08EFB8068F6E7D0
:102CC0000020F4E7004870473057020801207047A1
:102CD00013B5002451B1036801948DF8034001AA93
:102CE0009C680DF10303A04702B010BD0846FBE746
:102CF000C0897047008A7047C088704780887047D5
:102D0000807A00F07F007047807AC0097047002009
:102D1000704700009FED010A704700BF00000000EF
:102D20007047704700F598730868496803C3704797
:102D3000704770474160704770477047064BC0F856
:102D40004C310023C0F8503100F5A273C0F848019F
:102D5000C0F84031704700BFFD2D00080123037209
:102D60007047704710B4C26841685410034601EBC5
:102D70006200D20748BF0A599B685DF8044B48BF00
:102D8000D35818470346406830B19A681AB9D868D2
:102D900000F0010070470120704710B50C21044677
:102DA0001FF06BFB204610BD10B5102104461FF02C
:102DB00064FB204610BD10B54FF4AE7104461FF001
:102DC0005CFB204610BD10B50DF0C2F80368BDE8ED
:102DD0001040DB6B184710B50446D0F8400158B1DD
:102DE0000368DB68984738B1D4F8400103689B68F2
:102DF00098470023C4F8403110BD00002DE9F14F81
:102E0000D0E9556A0746B06803681B6A9847B0F571
:102E1000726F05D2444B454AA321454820F0B0FAD1
:102E2000706803681B6A98470F2803D8414B3F4AD4
:102E3000A421F2E7F06803681B6A98470B2803D8BF
:102E40003D4B3A4AA521E8E70DF082F8DFF8F09013
:102E500004300DF0A2F8D9F8000010B10368DB6867
:102E60009847D9F8000010B103681B689847DFF84D
:102E7000D480D8F8000010B103685B699847D7F890
:102E80003C0110B103685B689847D8F8000010B1A6
:102E900003681B689847D7F83C0110B103689B682A
:102EA0009847F068036800215B6A98474FF0000B71
:102EB000224BC0F804B0044680F808B00360B06844
:102EC000036859465B6A9847054600F01DFB706829
:102ED000036859465B6A98472946064600F0C6FAD9
:102EE000331DC7F83C61C9F80040C8F80050CAF863
:102EF00000302B68C6F808A02846DB68EE639847C8
:102F0000336830461B689847214628460FF05CFA24
:102F1000236820461B69984723685B69204601B0F7
:102F2000BDE8F04F184700BFFD4D02088B4E020868
:102F30005D4F0208A44F020847500208B857020824
:102F40008840012084400120044B1B6893F85820DE
:102F50000AB1D86C00B99868704700BF40400120A2
:102F600070B504460D4616460DF0B4F8104A1460CC
:102F7000104A2260104A0023C4E95123C4E95333A4
:102F8000C4E94F330D4B1868036801219B68C4E9FD
:102F900055659847FFF7D8FF17F08BF9FFF7D4FF77
:102FA00017F002FAFFF7D0FF17F00AFA204670BDBB
:102FB00094400120645702084C5702084040012009
:102FC000064BC0F84C310023C0F8503100F5A27315
:102FD000C0F84801C0F84031704700BFFD2D00081F
:102FE000406A7047806A704770478A880B8810B5BE
:102FF000D20A4C88C1699BB251F8220043EA0443CB
:10300000184410BD10B50446BAB1107B68B1537BAB
:10301000D27A1B0203F4E0631A43236A03EB8203B0
:103020001A888A4202D193F9020010BD05D80138EE
:1030300080B204330028F3D1F7E70020F5E710B59C
:103040002C2104461FF019FA204610BD30B58BB074
:103050000446BDF860500895BDF85C5007959DF892
:10306000505006959DF84C5005959DF84850049594
:103070009DF8445003959DF8405002959DF83C50B2
:103080000195BDF8385000950EF06CFD064B23609D
:10309000159BE361169B2362199B63621A9BA362D3
:1030A00020460BB030BD00BFDC57020870477047A8
:1030B0007047704770477047704710B56C210446E1
:1030C0001FF0DBF9204610BD38B504460EF0D0FFE6
:1030D0000023C4E91133C4E91333C4E91533C4E947
:1030E0001733E363A3660F4A22604FF480730E4ADE
:1030F000A4F8643004F14005FF23226484F86630AC
:103100002846F021FEF702FB28464FF4A071FEF797
:10311000FFFA4FF07F43201DA366294607F08AFC83
:10312000204638BD445802089C5C020870470000E5
:1031300030B5164D2C6814F001048FB0BFF35B8FCF
:1031400020D128461FF09BF9E0B13F230993104B93
:103150000893104B104911480A940122CDE9064307
:103160000423CDE903320A230093CDE90B44CDE9D2
:1031700001440594FFF76AFF094820F01FF928462B
:103180001FF089F905480FB030BD00BF8C31002019
:103190000867020814670208D86602089031002008
:1031A0002D3100087047000030B5164D2C6814F022
:1031B00001048FB0BFF35B8F20D128461FF05FF969
:1031C000E0B13F230993104B0893104B104911486D
:1031D0000A940122CDE906430423CDE903321423E6
:1031E0000093CDE90B44CDE901440594FFF72EFF90
:1031F000094820F0E3F828461FF04DF905480FB0C4
:1032000030BD00BFBC3100200C67020818670208FF
:10321000E8660208C0310020A531000870470000B0
:1032200030B5164D2C6814F001048FB0BFF35B8FDE
:1032300020D128461FF023F9E0B13F230993104B1A
:103240000893104B104911480A940122CDE9064316
:103250000423CDE9033228230093CDE90B44CDE9C3
:1032600001440594FFF7F2FE094820F0A7F828462C
:103270001FF011F905480FB030BD00BFEC31002040
:10328000106702081C670208F8660208F031002087
:103290001D32000800207047002070470EB403B5AF
:1032A00003AB002153F8042B01930DF0D9FE02B0BB
:1032B0005DF804EB03B070470CB407B504AB53F8EA
:1032C000042B01930DF0CCFE03B05DF804EB02B0CB
:1032D00070470000436C10B5044673B3038F2BB9DD
:1032E000184B194AC521194820F04AF8C38E00EB43
:1032F00043035B8C0BB30FF05AFD238F012B03D8D4
:10330000134B144ACB21EEE7E28E531C9BB2092BE0
:10331000194688BFA3F10A0104EB410140F63F10B2
:10332000498C814209D10A2B04EB420228BF0023B9
:1033300004EB4303508C588451842046BDE8104070
:103340000FF038BCEA500208F35002089E51020800
:10335000E8510208F65102080FF0F3BB38B518BB6C
:10336000124B13481C681349B4B12268224402600E
:10337000626822440A60A26814440F4B00221A803B
:1033800000F02AF8054600F025F80C4B1C600C4BA9
:103390001D600C4B188007E00B4B03600B4B0B6060
:1033A0000B4B1C68002CE8D138BD00BF2832002030
:1033B000203200201C3200202432002098400120BE
:1033C000A04001209C4001202467020820670208D9
:1033D0002867020800207047004870472C32002000
:1033E00010B5FFF7E1FE044C2060FFF719FF6060A5
:1033F000FFF79EFEA06010BD2C32002010B5002407
:1034000004600C6014601C6010BD704710B54FF470
:10341000AE7104461FF031F8204610BD10B50446C9
:10342000D0F8580100F013F82046BDE810400CF029
:1034300011BE000010B50446FFF792FD014B23605A
:10344000204610BD7858020800220260704770477D
:10345000704704387047704710B5102104461FF0BC
:103460000CF8204610BDA0F10400F5E700228260B0
:10347000024A026018324260C1607047CC580208AC
:1034800010B5074C206818B104F018FC0023236025
:10349000044C206818B104F083FD0023236010BDA4
:1034A0000C2F0020102F002010B5034B03600446A2
:1034B000FFF701FE204610BDF458020810B504467F
:1034C000FFF7F2FF20464FF472611EF0D6FF204650
:1034D00010BD2DE9F0411D460368BDF918701B6B46
:1034E0000446164698472368314620465B6B98474A
:1034F0002368294620469B6B984723683946204617
:10350000DB6BBDE8F041184710B50446FFF7DCFD62
:103510002046164B40F86C3B0AF0D4F804F1B40096
:10352000FEF7D8F9124AC4F8B4202432C4F8BC20FB
:1035300014220023C4F8D0200022C4E94133C4E996
:103540003633C4E93833C4E93A33C4E93C33C4F808
:10355000C03084F8D430C4F80C31C4F8F820C4F872
:10356000FC20A4F80031204610BD00BFF45802082A
:103570005C5A020810B50446FCF73AFE214682B2B6
:10358000BDE8104001480A2303F017BD542F002066
:1035900070B590F8D4308EB004467BB3184D00F06F
:1035A0008BFD2B68C31AB3F57A7F11DCD4F8D020D9
:1035B0001449534393FBF1F313445B0123EAE37390
:1035C000201DC4F8A0300EB0BDE870400DF072BEF2
:1035D000002684F8D46000F06FFD2D6884F89160B7
:1035E000451B04F16C000AF05FFD074A2B463221AF
:1035F00001A820F089F801A8FFF7BCFF0EB070BD4C
:103600003832002018FCFFFFC8520208D0F8F03012
:1036100070B500EB83040D68C4F8D8501568C4F881
:10362000E4500133032593FBF5F404EB44041B1B26
:10363000C0F8F030D0E936341C44D0E93936334490
:10364000D0F8EC60D0F8E0003344204493FBF5F36D
:1036500090FBF5F00860136070BD00230022C0E904
:103660003633C0E93833C0E93A33C0E93C33C0F8F7
:10367000F820C0F8FC20A0F80031C0F804317047F1
:1036800007EE901A06EE102A002B48D007EE103AEB
:10369000F8EEE77AF8EE476AB8EEC66A87EEA67AE1
:1036A000C6EE267A90ED3E6ADFED3B5AB5EEC06A73
:1036B000F1EE10FA27EE257A67EEA57A30DDB5EE49
:1036C000C07AF1EE10FA31DCD0ED3F6A80ED3E7A3F
:1036D000F5EEC06AF1EE10FA40DDF5EEC07AF1EEDB
:1036E00010FA41DCC0ED3F7AD0ED3E7A9FED2B7AA7
:1036F000F0EEE77AF4EEC77AD0ED3F7AF1EE10FA09
:10370000F0EEE77A48BF0023F4EEC77A48BFC0F86E
:10371000F830F1EE10FA44BF0023C0F8FC307047D7
:10372000D2D5B5EEC07AF1EE10FACDD5DFED1C6A38
:10373000DFED1C5A67EE266AB0EEC77AE6EE256A20
:10374000B0EEE66AB4EEC76AF1EE10FACABF9FEDBA
:10375000167AB0EE667A26EE877AB5E7C2D5F5EE30
:10376000C07AF1EE10FABDD59FED0D7A9FED0D6A8E
:1037700027EE877AF0EEE77AA6EE867AF0EEC76A51
:10378000F4EEE76AF1EE10FACABFDFED077AF0EE69
:10379000477A67EE277AA5E700007A44CDCCCC3D86
:1037A0009A99993E3333333F9A99993F37B50446F6
:1037B000FFF782FC04F588704FF461610BF078FB31
:1037C0004FF0FF33C4F8C030A4F8C430D4F8D03080
:1037D0005B0004F16C051BB20022009311462846E1
:1037E000FFF777FED4F8D0305B01C4E9263323EA33
:1037F000E373C4F8A03004F1B40200232946201D6D
:10380000C4F8AC30C4F8942084F8913003B0BDE81B
:10381000304007F00FB90000F0B50D4693B00446F4
:103820000EF064FBEA886B899B1A1BB22A8903930A
:10383000AB899B1A1BB2049300F03EFCD4F8F470E1
:10384000C4F8F4000646B4F8D000AA896989430098
:103850001BB2121A091A009312B209B204F16C00D9
:10386000FFF737FED4F8D0305B01C4E9263323EAF2
:10387000E373C4F8A030012384F89130201D0DF0CB
:1038800019FD94F80031002B39D094F801317BB147
:1038900004AA03A92046FFF7B9FEDDE90312F31BD2
:1038A0002046FFF7EDFE51EA02032DD113B0F0BD23
:1038B000D4F80431B5F90A20D4F808C1B5F90C10D0
:1038C000D4F80C01F31A632BF0D9A2EB0C02002AF6
:1038D000A1EB0001B8BF52420029B8BF49420A44D7
:1038E000072AE3DD4FF48071A4F8001105A80092C7
:1038F0003221264A1FF008FF05A8FFF73BFE94F887
:103900000131002BD2D0C3E7D4ED3E7A9FED207A6F
:10391000F0EEE77AF4EEC77AF1EE10FA33DCD4ED8C
:103920003F7AF0EEE77AF4EEC77AF1EE10FAB7EEEE
:10393000087AF7EE007AD8BFB0EE677A07EE901AF1
:10394000F8EEE77A322167EE877A05A8FDEEE77A8E
:1039500017EE904A07EE902AF8EEE77A0D4A67EEE6
:10396000877A2346FDEEE77A17EE905ACDED007A7E
:103970001FF0CAFE05A8FFF7FDFD002269B260B284
:10398000FEF76EFD92E7B7EE087AD7E7D852020845
:1039900000004842FE520208F0B504460D4691B0C0
:1039A0000EF050FA1423C4F8D0302E79B5F9063051
:1039B000C4F8C830B5F90830C4F8CC30002E43D173
:1039C0002046FFF74AFE00F077FB0125C4F8F4001B
:1039D000A4F8005100F070FBC4F80401B4F8D00062
:1039E000D4F8C810D4F8CC20C4F8081100FA05F3B4
:1039F000C4F80C211BB2121A091A12B209B20093B0
:103A000004F16C00FFF765FDD4F8D03084F89150D4
:103A10005B01C4E9263323EAE373C4F8A03084F8D9
:103A2000D45000F049FB384B384A1860D4F8CC30F9
:103A30000093D4F8C830322103A81FF065FE03A814
:103A4000FFF798FD11B0F0BD012EFBD100F034FB63
:103A500094F800E1D4F804C1D4F8C830D4F808715F
:103A6000D4F8CC10D4F80C2194F80151BEF1000F19
:103A700046D0002D44D1A0EB0C00B0F5FA7F3FD822
:103A8000DB1B002BA1EB0201B8BF5B420029B8BFD2
:103A900049420B44072B33DC03A8FFF76BFD32468A
:103AA00029462846FEF7DCFC022229462846FEF776
:103AB000D7FC2046FFF7D1FDB4F8D000D4F8CC20D5
:103AC000D4F8C81043001BB2121A091A009312B29C
:103AD00009B204F16C00FFF7FCFCD4F8D0305B01B4
:103AE000C4E9263323EAE373C4F8A030012384F841
:103AF000913084F8D43000F0DFFA034B1860A1E76E
:103B000003A8FFF737FDD4E7383200200D53020831
:103B1000F02070474FF4A07070472920FEF730BDA9
:103B20002820FEF72DBD08B5FEF7FEFCCA20FEF7E3
:103B300027FDC320FEF708FD0820FEF705FD5020F5
:103B4000FEF702FDCF20FEF71BFD0020FEF7FCFC78
:103B5000C120FEF7F9FC3020FEF7F6FCED20FEF761
:103B60000FFD6420FEF7F0FC0320FEF7EDFC1220B1
:103B7000FEF7EAFC8120FEF7E7FCE820FEF700FDF7
:103B80008520FEF7E1FC0020FEF7DEFC7820FEF742
:103B9000DBFCCB20FEF7F4FC3920FEF7D5FC2C2013
:103BA000FEF7D2FC0020FEF7CFFC3420FEF7CCFC61
:103BB0000220FEF7C9FCF720FEF7E2FC2020FEF70A
:103BC000C3FCEA20FEF7DCFC0020FEF7BDFC002071
:103BD000FEF7BAFCB120FEF7D3FC0020FEF7B4FCE0
:103BE0001B20FEF7B1FCB620FEF7CAFC0A20FEF748
:103BF000ABFCA220FEF7A8FCC020FEF7C1FC102001
:103C0000FEF7A2FCC120FEF7BBFC1020FEF79CFCD7
:103C1000C520FEF7B5FC4520FEF796FC1520FEF703
:103C200093FCC720FEF7ACFC9020FEF78DFC3620FD
:103C3000FEF7A6FCC820FEF787FCF220FEF7A0FCEA
:103C40000020FEF781FCB020FEF79AFCC220FEF7B0
:103C50007BFCB620FEF794FC0A20FEF775FCA7203B
:103C6000FEF772FC2720FEF76FFC0420FEF76CFCC9
:103C70002A20FEF785FC0020FEF766FC0020FEF7F8
:103C800063FC0020FEF760FCEF20FEF75DFC2B20BC
:103C9000FEF776FC0020FEF757FC0020FEF754FCF0
:103CA0000120FEF751FC3F20FEF74EFCF620FEF708
:103CB00067FC0120FEF748FC0020FEF745FC0620CB
:103CC000FEF742FC2C20FEF75BFCC820FEF7A6FCAA
:103CD0002620FEF755FC0120FEF736FCE020FEF71B
:103CE0004FFC0F20FEF730FC2920FEF72DFC24208E
:103CF000FEF72AFC0C20FEF727FC0E20FEF724FC22
:103D00000920FEF721FC4E20FEF71EFC7820FEF76E
:103D10001BFC3C20FEF718FC0920FEF715FC1320C5
:103D2000FEF712FC0520FEF70FFC1720FEF70CFC37
:103D30001120FEF709FC0020FEF706FCE120FEF74B
:103D40001FFC0020FEF700FC1620FEF7FDFB1B20E9
:103D5000FEF7FAFB0420FEF7F7FB1120FEF7F4FB59
:103D60000720FEF7F1FB3120FEF7EEFB3320FEF7D4
:103D7000EBFB4220FEF7E8FB0520FEF7E5FB0C20FD
:103D8000FEF7E2FB0A20FEF7DFFB2820FEF7DCFB54
:103D90002F20FEF7D9FB0F20FEF7D6FB1120FEF7F0
:103DA000EFFBC820FEF73AFC2920FEF7E9FBBDE84F
:103DB00008402C20FEF7E4BB08B5FEF7B5FB032155
:103DC000D320FEF7F9FB80B208BD10B5C4B20222C1
:103DD00003212046FEF75EFB0A20FEF7A3FB2046E8
:103DE00000220321FEF756FBBDE810400220FEF73B
:103DF00099BB38B50446E4B2FEF74AFB00212046E1
:103E0000FEF760FB012105462046FEF75BFB40EA1A
:103E1000052080B238BD10B5C4B240212046FEF75F
:103E200051FB030607D54C212046FEF74BFB00381B
:103E300018BF012010BD01224B212046FEF72AFBAE
:103E4000204600224B21FEF725FB0020F2E773B548
:103E50000423C4B20E461546D7210DEB03022046BB
:103E6000FEF74AFB019B1BBA1A0DC3F30B233280EA
:103E700020462B8001224B21FEF70CFB00224B2118
:103E80002046FEF707FB02B070BD000010B50A4ADD
:103E90001378984204460DD0517888420AD00BB16D
:103EA00041B90123D454FEF7F3FA2046BDE810408F
:103EB000FFF78BBF10BD00BF3C32002010B5C4B26D
:103EC00009212046FEF7FEFA40F00102D2B2204658
:103ED0000921BDE81040FEF7DDBA10B5C4B20921D2
:103EE0002046FEF7EFFA092100F0FE022046BDE869
:103EF0001040FEF7CFBA38B5C4B20D4620460A21AD
:103F0000FEF7E0FA40EA0502D2B220460A21BDE8F7
:103F10003840FEF7BFBA10B50446FEF7BAFA20469D
:103F20001F21FFF7E8FF2046BDE81040FFF7C6BF9E
:103F300038B5C4B20D4620460A21FEF7C3FA20EA7E
:103F40000502D2B220460A21BDE83840FEF7A2BAE7
:103F500010B50446FFF7C1FF20461F21BDE8104001
:103F6000FFF7E6BF10B5C0B20C460B21FEF7AAFA68
:103F7000204010BD1F21FFF7F5BF0A46C0B20B213C
:103F8000FEF788BA1F21FFF7F8BF38B5C4B20D4657
:103F900020461721FEF796FA20EA0502D2B2204603
:103FA0001721BDE83840FEF775BA70B5C4B20646B1
:103FB00004212046FEF786FA042100F0FB020546A4
:103FC0002046FEF767FA3046F021FFF7DEFF05F0E6
:103FD000F80220460421FEF75DFA492220212046FE
:103FE000FEF758FA0220FEF79DFA20460122212111
:103FF000FEF750FA20469A224121FEF74BFA20465E
:1040000001224A21FEF746FA204601224B21FEF703
:1040100041FA204600224B21FEF73CFA20460122BD
:104020005621FEF737FA204601225821FEF732FAD0
:10403000204601224021FEF72DFA2046FF220B21C7
:10404000FEF728FABDE870400220FEF76BBA0000C8
:10405000054BD3F8882042F47002C3F888204FF053
:1040600000629A60704700BF00ED00E008B50B4B9E
:104070001A6842F400721A601A6842F480621A6088
:104080001A6842F480721A60032000F02FF80020B2
:10409000FEF73CFDFEF7D0FA002008BD003C0240D0
:1040A000034A044B11681B780B441360704700BF30
:1040B00040320020C8000020014B1868704700BF44
:1040C0004032002038B50446FFF7F6FF631C1CBFE2
:1040D000054B1B78054618BFE418FFF7EDFF431B9F
:1040E000A342FAD338BD00BFC80000200749CA6800
:1040F00022F4E0620302120403F4E063120C13439F
:1041000043F0BF6343F40033CB60704700ED00E041
:10411000164B30B5DC68C4F30224C4F10703251D37
:10412000042B28BF0423062D4FF0FF358CBF033C22
:10413000002405FA03F321EA0303A54022EA05025D
:10414000A340002843EA0203ACBF00F16040084AE4
:104150004FEA0313B8BF00F00F00DBB2AABF00F5AF
:104160006140135480F8003330BD00BF00ED00E023
:1041700014ED00E0002807DB044A4109012300F0A8
:104180001F00834042F82130704700BF00E100E08B
:1041900010B5044650B1437903F0FF0213B9027120
:1041A000FEF76AFA01236371002010BD0120FCE7CD
:1041B00010B5044620B390F8393003F0FF021BB964
:1041C00080F83820FEF770FA022384F8393023682B
:1041D00061681A6822F440320A431A605A6BA16877
:1041E00022F007020A435A631A6CE1686FF30D026A
:1041F0000A431A6400200123E06384F8393010BDBB
:104200000120FCE770477047036870B55E681D6861
:10421000F207044614D5E90512D51A6822F4807213
:104220001A60C26B42F00102C26301229A60042349
:1042300080F83930002380F83830436903B198475B
:10424000B20616D5AB0414D523681A6822F40052BE
:104250001A6020229A60E36B43F00203E3630423B5
:1042600084F83930002384F8383063690BB1204674
:104270009847300716D5290514D523681A6822F403
:1042800000621A6008229A60E36B43F00403E36360
:10429000042384F83930002384F8383063690BB183
:1042A0002046984772070BD56B0509D523681A6815
:1042B00022F480621A6004229A602046FFF7A2FF6F
:1042C000B00714D5A90512D523681A6822F4007224
:1042D0001A6002229A60E36BE363012384F83930A9
:1042E000002384F8383023690BB120469847F20642
:1042F00013D5EB0411D523681A6822F480521A6092
:1043000010229A60E36BE363012384F839300023C1
:1043100084F838302046FFF776FF70BDF0B590F88E
:104320003820012A03464FF002002BD0012283F8E7
:10433000382083F8390003EB0112D2E90740556AAF
:10434000174F44EA0040093C012C9CBF05F07F4216
:1043500010434FEA01161A6888BF40EA056091B918
:10436000516A394001435162012C9969916103D826
:10437000596A21F07F4191620122002083F839209F
:1043800083F83800F0BDD16939400143D1619919F2
:10439000012C896911619CBF25F07F451562EBE70F
:1043A000F0FFFC002DE9F74FDFF8BC916C4A0023C9
:1043B0000D6801249C4004EA0506AC4340F0B78038
:1043C0004D68032705F003044FEA430807FA08FC89
:1043D000671E012F6FEA0C0C34D8876807EA0C0EB1
:1043E000CF6807FA08F747EA0E078760476827EAA9
:1043F000060EC5F300179F4047EA0E074760C768DF
:1044000007EA0C0E8F6807FA08F747EA0E07022C36
:10441000C76019D14FEAD30A00EB8A0A03F0070BF1
:10442000DAF820704FEA8B0B4FF00F0E0EFA0BFEEE
:1044300027EA0E0E0F6907FA0BF747EA0E07CAF8CC
:10444000207001E0032CDAD1076804FA08F407EAC7
:104450000C073C4315F4403F046068D000240194ED
:10446000D9F8444044F48044C9F84440D9F8444061
:1044700023F0030707F1804704F4804407F59C37D5
:10448000019403F0030C019CD7F808E04FEA8C0C70
:104490000F2404FA0CF42EEA040E324CA0424DD044
:1044A00004F58064A0424BD004F58064A04249D05A
:1044B00004F58064A04247D004F58064A04245D052
:1044C00004F58064A04243D004F58064A04241D04A
:1044D00004F58064A0423FD004F58064A0423DD042
:1044E00004F58064A04214BF0A24092404FA0CF4E1
:1044F00044EA0E04BC609468F74315F4801F0CBFB7
:104500003C4034439460D46815F4001F0CBF3C4019
:104510003443D460546815F4003F0CBF3C4034432E
:1045200054601468ED0354BF3C40344314600133BD
:10453000102B7FF43DAF03B0BDE8F08F0024D5E72A
:104540000124D3E70224D1E70324CFE70424CDE7F5
:104550000524CBE70624C9E70724C7E70824C5E7F5
:10456000003C01400000024000380240036919424B
:1045700014BF0120002070470AB18161704709040F
:10458000FBE7436901EA030221EA030141EA024130
:104590008161704701684B6913F480634FF000023A
:1045A00010D06FF480634B612023026380F83D30AC
:1045B00080F83E20036C80F83C2043F00403036441
:1045C00001207047184670472DE9F84606460F4609
:1045D00091461D464FEA114A3368BAF1010F0CBFEC
:1045E0005C699C6927EA0404A4B2B4FA84F46409FF
:1045F000A14501D0002025E06A1CEED0FFF75CFD4C
:10460000089BC01AA84201D8002DE5D13368BAF141
:10461000010F0CBF5B699B6927EA03039BB2B3FAE6
:1046200083F35B099945D7D100232022336386F8B1
:104630003D2086F83E30326C86F83C3042F0200255
:1046400032640120BDE8F8862DE9F04104460F46AA
:10465000164698462568686927EA000080B2C0B10E
:104660006B695A0517D52B6843F400732B606FF400
:1046700080636B6120220023236384F83D2084F84B
:104680003E30236C43F004032364002384F83C3061
:104690000120BDE8F081731CDDD0FFF70DFDA0EB1C
:1046A0000800B04201D8002ED4D123685A6927EA05
:1046B000020292B2002ACDD000232022236384F884
:1046C0003D2084F83E30236C1343DDE770B504468B
:1046D0000D46164623685B691B0601D500201EE0C7
:1046E0002046FFF757FFC8B96A1CF3D0FFF7E4FC78
:1046F000801BA84201D8002DECD123685B6913F020
:104700008003E7D12022236384F83D2084F83E30E3
:10471000226C84F83C3042F020022264012070BDFB
:104720002DE9F0431546026885B0DDE90C7899461D
:10473000136843F4807313600E463B46CDF8008047
:1047400000224FF001110446FFF73EFF236838B105
:104750001B68DB0502D54FF400732364032620E0B9
:1047600006F0FE061E611A4943463A462046FFF708
:104770006BFFA8B9236803905A6903929B6903935E
:10478000424639462046039BFFF7A0FF064660B12C
:10479000236C042B01BF2268136843F40073136079
:1047A0000126304605B0BDE8F083B9F1010F23685A
:1047B00002D1EDB21D61F4E72A0A1A613946424678
:1047C0002046FFF783FF0028E2D12368F1E700BF0E
:1047D000020001002DE9FF479A46036815461A6852
:1047E00042F480621A601A68DDE90C7842F4807243
:1047F0001A600E463B46CDF8008000224FF00111B2
:104800000446FFF7E1FE236838B11B68DB0544BFAF
:104810004FF400732364032021E05FFA86F906F069
:10482000FE061E612B4943463A462046FFF70CFF21
:10483000A0B9236803905A6903929B690393424687
:1048400039462046039BFFF741FF58B1236C042BE8
:1048500001BF2268136843F400731360012004B0A1
:10486000BDE8F087BAF1010F23681AD1EDB24246D4
:104870001D6139462046FFF729FF02460028E5D191
:1048800021680B6843F480730B602046CDF80080EC
:104890003B464FF00111FFF797FE226860B11368A5
:1048A000B4E72A0A1A61394642462046FFF70EFF4E
:1048B0000028CBD12368D9E749F0010313610549EA
:1048C00043463A462046FFF7BFFE003818BF012096
:1048D000C5E700BF0200010070B504460D4616464C
:1048E00023685B695B0701D500201EE02046FFF7C7
:1048F00051FEC8B96A1CF3D0FFF7DEFB801BA8424B
:1049000001D8002DECD123685B6913F00403E7D1D3
:104910002022236384F83D2084F83E30226C84F802
:104920003C3042F020022264012070BD70B5044684
:104930000D46164621684B6913F0400301D0002054
:1049400011E04A69D2060FD56FF010024A612022A9
:10495000236384F83D2084F83E30236C23640023D5
:1049600084F83C30012070BDFFF7A6FB801BA842F5
:1049700001D8002DDED123685B6913F04003D9D143
:104980002022236384F83D2084F83E30236C1343B7
:10499000E4E7000070B5044608B9012070BD90F846
:1049A0003D3003F0FF021BB980F83C20FDF79EFE6E
:1049B000242384F83D3023681A6822F001021A602B
:1049C0001A6842F400421A601A6822F400421A601F
:1049D00001F080FB3F4B65689D4294BF3E4B3F4BCF
:1049E00098428CBF00230123002BD6D12268394E78
:1049F00051683B4BB0FBF3F321F03F011943B54243
:104A0000516088BF4FF49676116A88BF734321F0D6
:104A10003F0184BF4FF47A76B3FBF6F301330B43C7
:104A20001362D169431E2B4821F44F41854221F086
:104A3000FF0132D86D0040F6FC70B3FBF5F3013393
:104A4000034242D0C3F30B031943D161D4E90730C9
:104A50001168034321F0C0010B4313609168D4E94E
:104A6000030321F40341034321F0FF010B4393604F
:104A7000D4E90530D168034321F0FF010B43D36033
:104A8000136843F00103136000202023206484F89E
:104A90003D30206384F83E0080E7A06850B905EB04
:104AA0004505B3FBF5F30133C3F30B037BB143F4CB
:104AB0000043C9E719206843B3FBF0F30133C3F3A4
:104AC0000B0323B143F44043BEE70423BCE70123B7
:104AD000BAE700BFA08601007F841E00FF083D00EA
:104AE00040420F002DE9F743044699460C9E0F46BD
:104AF0009046FFF7E1FA94F83D30202B054603D0AD
:104B0000022003B0BDE8F08300903C491923012244
:104B10002046FFF759FD0028F2D194F83C30012BD4
:104B2000EED02068012384F83C300368D9075EBFCB
:104B3000036843F001030360036823F40063036028
:104B4000212384F83D30402384F83E300023236441
:104B50000A9B6362BDF82C306385638D2385284BE7
:104B6000E3624246CDE900654B4639462046FFF7F1
:104B7000D7FD00282AD00120C3E7FFF7A7FD40B1E9
:104B8000236C042B01BF2268136843F40073136085
:104B9000F1E7636A27681A4612F8011B39616262FD
:104BA000628D218D013A92B262857A69481E80B287
:104BB000520720850AD548B15A783A6102336362B8
:104BC000638D013B02399BB221856385238D2A4683
:104BD00031462046002BD0D1FFF77EFE0028CFD1F2
:104BE0002268136843F400731360202384F83D3077
:104BF00084F83C0084F83E0083E700BF0200100008
:104C00000000FFFF2DE9F043044687B09946109F4E
:104C10000D469046FFF750FA94F83D30202B06469B
:104C200004D00225284607B0BDE8F08300907A49F9
:104C3000192301222046FFF7C7FC0028F1D194F880
:104C40003C30012BEDD02068012384F83C30036810
:104C5000DB075EBF036843F001030360036823F4CE
:104C600000630360222384F83D30402384F83E3003
:104C7000002323640E9B6362BDF83C306385638D23
:104C80002385664BE3622946CDE900764B464246D2
:104C90002046FFF79FFD054608B10125C2E7228D9A
:104CA0002368B2B902905A6902929A690292029AF2
:104CB0001A6842F400721A60DFF86481238D002BB9
:104CC0002CD1202284F83D2084F83C3084F83E30FA
:104CD000A8E7012A0AD11A6822F480621A600390B8
:104CE0005A6903929A690392039AE1E7022A0ED164
:104CF0001A6822F480621A601A6842F400621A602C
:104D000004905A6904929B690493049BD4E705902C
:104D10005A6905929B690593059BCDE7032B56D8ED
:104D2000012B15D1324639462046FFF7FFFD0028FA
:104D3000B3D123681A69636A1A70636A01336362C4
:104D4000238D013B2385638D013B9BB26385B5E7D2
:104D5000022B00963B464FF000024146204619D1F7
:104D6000FFF732FC002898D123681A6842F40072D9
:104D70001A601A69636A1A70626A531C6362238D2F
:104D8000013B2385638D013B9BB2638523681B69CF
:104D90005370D2E7FFF718FC024600287FF47DAF7E
:104DA0002368196821F4806119601969636A1970B0
:104DB000636A01336362238D013B2385638D013B6D
:104DC0009BB26385414600963B462046C8E7324683
:104DD00039462046FFF7AAFD00287FF45EAF23681E
:104DE0001A69636A1A70628D616A013A92B24B1C49
:104DF000628522686362238D5069013B9BB2400744
:104E000023857FF55BAF032B02BF136823F4806318
:104E1000136013694B7090E7020010000000FFFF61
:104E20000400010010B590F83D30202BDCB216D103
:104E3000242380F83D3003681A6822F001021A60CA
:104E40005A6A22F010025A625A6A114359621A6869
:104E500042F001021A6080F83D40002010BD02209F
:104E6000FCE730B590F83D30202BDCB216D102685B
:104E7000242380F83D30136823F001031360556A42
:104E80004FF6F0732B400B439BB25362136843F011
:104E90000103136080F83D40002030BD0220FCE794
:104EA0000068D20184328318F0B5C7685D684C6829
:104EB0000E6805F470455D60C56806F1010CC5F328
:104EC0000B45C7F30B472744654445EA07455D603A
:104ED000C768CD68C7F30A072F449D6805F470457D
:104EE0009D60D0F80CC08D68CCF30A0C0135654488
:104EF00045EA07459D601D69D1F810C08F6925F00E
:104F000007051D61C3F810C091F8305045EA0765E8
:104F100091F8317045EA072591F8327045EA074566
:104F20009D615D6925F0FF055D614D695D61DD692C
:104F300025F4E06525F00705DD61D1E907573D431C
:104F4000DD61BCF1070F4D6A9D629CBF0D4D15F8E8
:104F50000C70DD6A05F0E025DD6288BF01278D6AEF
:104F6000C96AA41B7C437D43033444EA0544DC62E4
:104F70001C6B6FF30A041C631963835843F001032D
:104F80008350F0BD3859020838B5044600284ED089
:104F900090F8A13003F0FF021BB980F8A020FDF7C4
:104FA00001FC022384F8A13023689A6922F0704240
:104FB0009A61D4E901200243E068996902432069BB
:104FC00002430A439A61D4E9051242EA01429A6017
:104FD000D4E9071242EA0142DA60D4E9091242EA4E
:104FE00001421A61D4E90B1242EA01425A61DA6ABB
:104FF00094F8350094F8361002F07F42DA62DD6AE8
:1050000094F834202A4342EA002242EA0142DA625A
:105010005A6B42F006025A639A6942F001029A61A1
:1050200000200123C4F8A40084F8A13038BD012079
:10503000FCE770477047036870B59E6B5D6B720745
:10504000044614D5690712D55A6B22F004025A633C
:105050000422DA63D0F8A43043F00103C0F8A4308E
:10506000002380F8A12080F8A030FFF7E2FFB2070C
:1050700016D5AB0714D523685A6B22F002025A6387
:105080000222DA63D4F8A4301343C4F8A430042312
:1050900084F8A130002384F8A0302046FFF7C9FF30
:1050A000F00710D5E9070ED523685A6B22F00102EC
:1050B0005A630122DA63002384F8A12084F8A03027
:1050C0002046FCF795FC320711D52B070FD5236836
:1050D0005A6B22F008025A630822DA63012384F82B
:1050E000A130002384F8A0302046FFF7A3FF70BD55
:1050F0002DE9F04190F8A030012B06460F4694466A
:105100004FF002001FD04FF0010886F8A08086F80B
:10511000A10034240D4604FB02640FCD38340FC4C3
:105120000FCD0FC40FCD0FC42B68236030466246ED
:105130003946FFF7B5FE33680020C3F8248086F8AF
:10514000A18086F8A000BDE8F081000090F8A020C2
:10515000012A03464FF0020012D01A6883F8A1001A
:10516000506B20F00100506306480164516B41F020
:10517000010151630020012283F8A12083F8A000DF
:10518000704700BF00680140F7B5044610B390F8BF
:105190009534056803F0FF021BB980F89424FCF7EE
:1051A000F9FC0323B5F1A04F84F8953404BF002324
:1051B000A371206802F0CAF8237C8DF80030251D09
:1051C00095E80E00206802F006F8014630B102238F
:1051D00084F895340125284603B0F0BD206802F01C
:1051E000BBF80028F3D1267904F114030127024605
:1051F000C1B28E4203F124031BD8002104F51573BC
:105200000A46C8B2864203F1240320D8237C8DF8D5
:10521000003095E80E00206802F01AF905460028D3
:10522000D5D101236074206884F8953402F054FCD1
:10523000D1E723F80A0C43E9072203F8237C03F89B
:10524000241C03F8202C43F8142C0130D0E743E948
:10525000072203F8232C03F8240C03F8202C43F82E
:10526000142C0131CDE710B50446006894F894344D
:10527000012B15D0012384F89434C3685B0606D54E
:10528000637B012B02BF836B43F48033836302F0A3
:1052900057F8206802F012FC002084F8940410BD36
:1052A0000220FCE710B590F89424012A04460AD0A5
:1052B000012280F894244174006802F0EFFB002082
:1052C00084F8940410BD0220FCE770B501F00F06CD
:1052D00006EBC60411F0800F05464FEA84044FF038
:1052E000240020D000FB065004F1140101242944BD
:1052F0004475C2F30A028A604A780E700B7102B1DB
:105300004E83022B04BF00234B7195F89434012B7C
:1053100012D00123286885F8943402F05EF9002049
:1053200085F8940470BD00FB065004F51571002447
:10533000294480F85542DCE70220F3E710B5044623
:1053400001F00F0000EBC00311F0800F4FEA830360
:105350004FF0240215D002FB004203F11401012397
:1053600021445375087094F89434012B12D0012312
:10537000206884F8943402F06FF9002084F89404D3
:1053800010BD02FB004203F515710023214482F891
:105390005532E7E70220F3E770B501F00F0524244A
:1053A00004FB050104FB0504C4E998230023C4F8A9
:1053B000683284F8553284F854521646827900686F
:1053C000012A01F5157108BFC4F8706202F0F0F906
:1053D000002070BD70B501F00F05242404FB050109
:1053E00004FB0504C4E908230023A36201236375B9
:1053F00025751646827900689A4201F1140108BFAA
:10540000266302F0D5F9002070BD38B5037901F0AC
:105410000F05AB4204462BD311F0800F4FF0240050
:105420001DD000FB054100FB0540012314314375ED
:1054300001238B700D7094F894249A421AD020683E
:1054400084F8943402F0D6FA2DB9A179206804F2D8
:105450009C4202F08FFB002084F8940438BD00FBCE
:1054600001431A4603F51571002382F85532DFE730
:105470000120F3E70220F1E738B5037901F00F02CC
:105480009342044629D302EBC20311F0800F4FEA86
:1054900083034FF0240017D000FB024003F11401F6
:1054A00001232144437500258D700A7094F89434CB
:1054B000012B14D00123206884F8943402F0C5FA3B
:1054C00084F89454284638BD00FB024003F515715A
:1054D0000023214480F85532E5E70120F3E702205C
:1054E000F1E701F00F0303EBC3030A064FEA83035E
:1054F0004CBF03F1140103F515710144006802F07B
:1055000001B900002DE9F04F066889B00446304625
:1055100002F01EFB0390002840F05681206802F044
:10552000E9FA002800F05081D6F808382068C3F363
:105530000D23C4F8D43402F0DDFA870748BF22688F
:10554000206842BF536903F00203536102F0D2FAAC
:10555000C00606F500652DD52268936923F0100377
:105560009361D6F8208008F4F013B3F5802F08F08B
:105570000F0740F02C8147F6F07318EA030F14D0A0
:10558000242303FB0747C8F30A19D7F860124A46D9
:10559000304602F00FFAD7F860324B44C7F8603259
:1055A000D7F868324B44C7F868322268936943F0F1
:1055B00010039361206802F09DFA010300F11A8143
:1055C000206802F097FA42030DD5206802F09EFA97
:1055D0002746049006F5106B4FF0000A049B2068E4
:1055E000002B40F0D181206802F084FA002813DA01
:1055F0006B6823F001036B6094F8CC34012B40F00E
:105600006982002184F8CC14204600F0E6FA226872
:10561000536903F000435361206802F06BFA0705F9
:105620000AD5AB68D80702D52046FCF729FB2268CB
:10563000536903F400635361206802F05BFAC1040C
:1056400033D56B68206823F001036B60102101F0F3
:10565000B3FE207906F510634FF67F31039A90422E
:1056600000F23C82EB6943F00113EB61E37B002B1A
:1056700000F05082D5F8843043F00B03C5F8843035
:105680006B6C43F00B036B64D6F80038206823F48E
:10569000FE63C6F8003804F29C42A17902F06AFA6F
:1056A0002268536903F480535361206802F022FAA0
:1056B000820416D5206802F04FFA206801F082FFBC
:1056C000E071276800F000FDE2790146384601F0FC
:1056D000C7FD2046FCF7C1FA2268536903F4005362
:1056E0005361206802F006FA030707D52046FCF74D
:1056F000B0FA2268536903F008035361206802F08E
:10570000F9F9070600F11182206802F0F3F9C002EE
:105710000CD5A04606F5126901272379BB4200F299
:105720001D822268536903F480135361206802F0DC
:10573000E1F981022BD594F804E0234606F53261A5
:105740004FF0010CE6451DD993F87C720868012FD3
:1057500040F01A82002880F21782D4F8D42482EA1A
:105760001040C20700F1108283F87B72B06940F0EC
:105770008000B0617069000600F106826B6843F436
:1057800000736B602268536903F40013536120684F
:1057900002F0B0F9410007D52046FCF795FA2268DF
:1057A000536903F080435361206802F0A3F9420774
:1057B0000AD523685D686B0702D52046FCF788FA96
:1057C000226853682B43536009B0BDE8F08FB3F5EE
:1057D000402F7FF4EAAE082204F29C41304602F0EA
:1057E000E9F8242303FB0747C8F30A18D7F86832FF
:1057F0004344D8E6206802F081F906F53068049049
:10580000A2460027049B2068002B3FF4D9AE049BDE
:10581000DB0778D55FFA87FB594602F07FF910F075
:10582000010F81461FD020680123C8F8083094F882
:1058300006C0016C00F5306303EB4713BCF1010FA8
:105840009A6840F08B8012F0080F07D0AF48814271
:1058500009D9120407D54FF4004203E012F0200FDB
:105860005AD020229A6019F0080F21D00823C8F8D6
:1058700008302368A5491A6C03F5306303EB47131E
:105880008A42986804D9010444BF4FF400409860EC
:1058900020460592FCF7C6F9059A9C498A4207D929
:1058A000A179012904D1206804F29C4202F062F936
:1058B00019F0100F1CBF1023C8F8083019F0020FA0
:1058C00014D073691A0642BF6B6843F480636B603F
:1058D0009AF85732012B06D100238AF857325946DD
:1058E0002046FCF7E9F90223C8F8083019F0200F28
:1058F0001CBF2023C8F8083019F4005F1CBF4FF408
:105900000053C8F80830049B5B080137049308F182
:1059100020080AF1240A75E7DFF8F0C1614501D9D2
:10592000120498D41A69DAF87432C2F312029B1A7C
:10593000CAF868326FB9D4F864222AB904F29C42DA
:10594000012102F017F904E0D4F860221A44C4F8E7
:10595000602259462046FCF76BF984E7DFF8B0C1B6
:10596000614507D111043FF576AF9006F1D52022AD
:105970009A60EEE7002FECD1D4F86432002BE8D126
:1059800004F29C423946DCE7049BDB0740F1998036
:105990005FFA8AF31946059302F0C9F810F0010F77
:1059A00080461FD06B6B01210AF00F0201FA02F250
:1059B00023EA02036B63CBF80810A17901290DD10A
:1059C000D7E9072313443B62BAF1000F06D1636A9B
:1059D00023B9206804F29C4202F0CCF805992046D5
:1059E000FCF72FF918F0080F1CBF0823CBF808307C
:1059F00018F0100F1CBF1023CBF8083018F0400F20
:105A00001CBF4023CBF8083018F0020F0FD05146CE
:105A1000304601F0D1FCFB7D012B05D10023059917
:105A2000FB752046FCF74CF90223CBF808302368BD
:105A3000069318F0800F44D0D7E909329A4240D833
:105A4000A3EB0208FB69984528BF9846069B03F51F
:105A5000106308F1030803EB4A134FEA9808079311
:105A6000079B996989B24145D7E9093227D3934207
:105A70000BD8069B0AF00F00D3F83428012181408F
:105A800022EA0102C3F834281BE0A3EB0209FB69F8
:105A9000059A0698994528BF9946A3790093396AD3
:105AA0001FFA89F301F070FE3B6A4B443B62BB6A0C
:105AB00009F103084B444FEA9808BB62D0E79342D0
:105AC000D7D9049B5B080AF1010A049324370BF130
:105AD000200B83E52046FCF7EBF898E599601A68FF
